:100000000C9454000C9471000C9471000C947100C9
:100010000C9471000C9471000C9471000C9471009C
:100020000C9471000C9471000C9471000C9471008C
:100030000C9471000C9471000C9471000C9471007C
:100040000C942A020C9471000C9471000C947100B1
:100050000C9471000C9471000C9471000C9471005C
:100060000C9471000C947100001F000000001F0030
:10007000001F101010101F00001F181818181F0064
:10008000001F1C1C1C1C1F00001F1E1E1E1E1F000C
:10009000001F1F1F1F1F1F0003070F1F0F07030055
:1000A000181C1E1F1E1C180011241FBECFEFD8E005
:1000B000DEBFCDBF11E0A0E0B1E0EEEBF5E002C0A5
:1000C00005900D92A232B107D9F721E0A2E2B1E08A
:1000D00001C01D92A732B207E1F70E94C1020C9441
:1000E000DD020C94000045B1282F207430E0B901E6
:1000F00094E0759567959A95E1F7982F9078292F58
:1001000030E056E0359527955A95E1F7262B942F48
:10011000997F292B25B948B1282F207130E0B901EA
:10012000E3E075956795EA95E1F7982F9072292F8E
:1001300030E0F3E035952795FA95E1F7262B942FDB
:10014000997F292B28B9599A589A25ED2A95F1F7C4
:1001500000005898599895ED9A95F1F7000035B13F
:1001600020E1829FC0011124BC0160747727A4E0C4
:1001700075956795AA95E1F7AC0140785527B6E0EB
:1001800055954795BA95E1F7262F242B397F232BD8
:1001900025B928B1AC014071552733E055954795F5
:1001A0003A95E1F78072992753E0959587955A958E
:1001B000E1F7842B922F997F892B88B9599A589A05
:1001C00085ED8A95F1F700005898599895ED9A9524
:1001D000F1F70000089545B1282F207430E0B901EF
:1001E00094E0759567959A95E1F7982F9078292F67
:1001F00030E056E0359527955A95E1F7262B942F58
:10020000997F292B25B948B1282F207130E0B901F9
:10021000E3E075956795EA95E1F7982F9072292F9D
:1002200030E0F3E035952795FA95E1F7262B942FEA
:10023000997F292B28B9589AEFE9FFE03197F1F718
:1002400000C000005898EFE9FFE03197F1F700C0D7
:10025000000035B1F0E18F9FC0011124BC01607432
:100260007727A4E075956795AA95E1F7AC014078EA
:100270005527B6E055954795BA95E1F7262F242BDB
:10028000397F232B25B928B1AC014071552733E0C4
:10029000559547953A95E1F78072992753E09595E2
:1002A00087955A95E1F7842B922F997F892B88B9EE
:1002B000589A8FE99FE00197F1F700C00000589825
:1002C000EFE9FFE03197F1F700C00000089581E009
:1002D0000C94EB0082E00C94EB000F931F93CF93F0
:1002E000DF93009789F0EC018C01060F111DC017F8
:1002F000D10751F089910E9473008FE99FE0019727
:10030000F1F700C00000F3CFDF91CF911F910F9163
:100310000895623031F0633031F0613029F4805C4F
:1003200003C08C5E01C08C5A80680C94EB00FF9275
:100330000F931F93CF93DF9328E0629FB0011124A6
:100340006064EC0118E0160FFE01F49001E0060F66
:10035000862F0E94EB008F2D0E9473002196602F44
:100360000113F2CFDF91CF911F910F91FF9008956C
:100370001F93CF93DF938FE59AEE0197F1F700C0BB
:10038000000085B1897F85B988B1897F88B91BB89C
:1003900087B1866087B984B1866084B984B186608C
:1003A00084B987B1866087B98AB183608AB985B11B
:1003B000897F85B988B1866088B9589A8FE99FE0AE
:1003C0000197F1F700C0000058988FE99FE001976E
:1003D000F1F700C0000085B1897F85B988B18660DA
:1003E00088B9589A8FE99FE00197F1F700C00000A3
:1003F00058988FE99FE00197F1F700C0000085B1A0
:10040000897F85B988B1897F846088B9589A8FE9D6
:100410009FE00197F1F700C0000058988FE99FE036
:100420000197F1F700C0000088E20E94EB008CE029
:100430000E94EB00C8E6D0E060E011E0160FCE01AC
:100440000E9497012896612F1830B9F7DF91CF915C
:100450001F9108951F920F920FB60F9211248F9340
:100460009F938091250190912601019690932601FA
:1004700080932501C29779F4809123019091240102
:100480000196909324018093230183E686BD109208
:100490002601109225019F918F910F900FBE0F9012
:1004A0001F9018950E94B8010E9467010E946A017E
:1004B00060E080E00E9489016AE080E091E00C94B5
:1004C0006D01CF93DF93DC018FE78BB9EDE1F1E0B4
:1004D00020E030E0579894B1967E94B923303105EE
:1004E00011F4579A04C084B19081982B94B9C9E152
:1004F000D1E040E050E089B19991982369F4220F4E
:10050000331F220F331F275F3E4FF901E40FF51F02
:1005100080818C9381E00CC04F5F5F4F4430510568
:1005200051F72F5F3F4F31962430310599F680E027
:10053000DF91CF9108950F931F93CF93DF931F9275
:10054000CDB7DEB78C01CE0101960E946102811108
:1005500004C09FEF909322010EC0898190912201E7
:10056000891306C08F3F21F0F801808381E003C02A
:100570008093220180E00F90DF91CF911F910F9126
:100580000895CF93DF931F92CDB7DEB719820E94F3
:100590005202CE0101960E949B028823D1F38981E9
:1005A0000E94730061E086E00E9489018FE19EE471
:0E05B0000197F1F700C00000ECCFF894FFCFE8
:1005BE0033312F31322F323100313233413435362F
:1005CE004237383943302A234408201004100801DA
:0205DE0080009B
:00000001FF
