:100000000C943B000C9458000C9458000C9458002D
:100010000C9458000C9458000C9458000C94580000
:100020000C9458000C9458000C9458000C945800F0
:100030000C9458000C9458000C9487000C945800B1
:100040000C9458000C9458000C94D3000C94580055
:100050000C9458000C941A010C9458000C945800FD
:100060000C9458000C94580045024D026B02730228
:1000700092029A02B80211241FBECFEFD8E0DEBF71
:10008000CDBF11E0A0E0B1E0EEE1F7E002C00590E5
:100090000D92A63AB107D9F721E0A6EAB1E001C076
:1000A0001D92AA3FB207E1F70E94D1020C948D0382
:1000B0000C94000085E085BD82E084BD8FEF87BD94
:1000C000EEE6F0E0808182608083089584B18660EE
:1000D00084B90895EAE7F0E0108210927B00ACE763
:1000E000B0E08C9183648C938C9180628C9380813E
:1000F0008760808380818062808380818860808344
:1001000080818068808380818064808308951F92CD
:100110000F920FB60F9211248F939F938091AC0191
:100120009091AD010197C1F58091AE019091AF0121
:10013000823F910524F085B18F7D85B92DC08091D6
:10014000AE019091AF01089724F485B1806285B922
:1001500023C08091A8019091A901892B81F481E0AD
:1001600090E09093A9018093A80185B1806285B940
:100170008091AE019091AF01819587BD0DC0109225
:10018000A9011092A80185B18F7D85B98091AE013A
:100190009091AF01815087BD9F918F910F900FBEBD
:1001A0000F901F9018951F920F920FB60F92112467
:1001B0002F933F938F939F93EF93FF93CF93DF936F
:1001C0001F92CDB7DEB719828091C60089838981DD
:1001D0008D3089F08091A6019091A7019C012F5F3D
:1001E0003F4F3093A7012093A6012981FC01EB52D8
:1001F000FE4F208311C0E091A601F091A701EB52C0
:10020000FE4F108281E090E09093B3018093B201A1
:100210001092A7011092A6010F90DF91CF91FF914C
:10022000EF919F918F913F912F910F900FBE0F9063
:100230001F9018951F920F920FB60F9211248F9353
:100240009F938091790090E09093B1018093B001E9
:100250009F918F910F900FBE0F901F9018959C014A
:10026000E1E8F0E090819D60908327343105C9F08A
:100270002235310529F02234310509F040C022C071
:100280006B3F710524F085B1806285B90895E0E87F
:10029000F0E08081816C8083709389006093880096
:1002A00008956B3F710524F085B1806285B908958A
:1002B000E0E8F0E080818163808370938B0060933D
:1002C0008A0008956830710524F484B18F7D84B963
:1002D0000895653F710534F084B1806284B985B1B9
:1002E000806285B984B1806284B981E090E09093A6
:1002F000AD018093AC017093AF016093AE0108959E
:100300001092D40160E070E082E590E00E942F013D
:1003100060E070E087E490E00E942F0160E070E010
:1003200082E490E00E942F010895DF92EF92FF9205
:100330000F931F93CF93DF938091B0019091B10100
:1003400044E6489F9001499F300D1124A1E8B0E890
:100350000E944403FC01EE0FEF2FEE1FFF0BF195FF
:10036000C0E0D1E028813981E29FC001E39F900D78
:10037000F29F900D112424E630E0B9010E942A0377
:100380007B014A815B81E49FC001E59F900DF49F52
:10039000900D1124B9010E942A03D62E062F172F83
:1003A0006C817D81E69FC001E79F900DF69F900DC7
:1003B0001124B9010E942A03862F972F2FEFE216EE
:1003C000F104CCF40F3F1105B4F48F3F91059CF478
:1003D000C72FD62FB70182E590E00E942F016D2D27
:1003E000712F87E490E00E942F016D2F7C2F82E413
:1003F00090E00E942F01DF91CF911F910F91FF900C
:10040000EF90DF900895EF92FF920F931F93CF9399
:10041000DF937C01EB0185ED91E00E9467038C0185
:1004200085ED91E00E94050388E291E00E940503BA
:100430000F3F110509F060F4CC0FDD1FC050DF4FF6
:100440001983088381E090E0F7019183808307C0DE
:1004500086E091E00E940503F70111821082DF918E
:10046000CF911F910F91FF90EF900895CF93DF935D
:10047000E091D4018E2F90E08730910508F08EC076
:10048000FC01EC5CFF4F0C943E038BE291E00E9478
:10049000050381E08093D40181C08091B2019091E5
:1004A000B301892B09F47AC01092B3011092B20102
:1004B00060E070E08AEA91E00E9403028091AA0164
:1004C0009091AB01892B21F082E08093D40166C02A
:1004D0001092D40163C084E591E00E94050383E09B
:1004E0008093D4015BC08091B2019091B301892BBC
:1004F00009F454C01092B3011092B20161E070E0AF
:100500008AEA91E00E9403028091AA019091AB01D6
:10051000892B21F084E08093D40140C082E0809355
:10052000D4013CC08DE791E00E94050385E08093F3
:10053000D40134C08091B2019091B301892B71F143
:100540001092B3011092B20162E070E08AEA91E089
:100550000E9403028091AA019091AB01892B21F0A6
:1005600086E08093D4011AC084E08093D40116C041
:10057000C0E0D1E06881798182E590E00E942F019E
:100580006A817B8187E490E00E942F016C817D81EC
:1005900082E490E00E942F011092D401DF91CF916C
:1005A00008950E945A000E94660087E690E00E942B
:1005B00021030E946A0078940E9480010E94360202
:1005C0000E949501FBCF1092C10096E09093C2006B
:1005D0008093C4000895E1ECF0E08081886080831E
:1005E0000895E1ECF0E08081806180830895E1EC82
:1005F000F0E080818068808308958091C00085FF4D
:10060000FCCF08958093C6000895EF92FF920F9358
:100610001F93CF937C01C0E007C00E94FD02F80148
:1006200080810E940203CF5F87010C0F111DF8012A
:1006300080818111F2CFCF911F910F91FF90EF90A8
:1006400008950E94E3020E94EB020E94F1020E94C0
:10065000F702089597FB072E16F4009407D077FD54
:1006600009D00E94530307FC05D03EF49095819574
:100670009F4F0895709561957F4F0895EE0FFF1F6E
:100680000590F491E02D0994A29FB001B39FC001A1
:10069000A39F700D811D1124911DB29F700D811DAE
:1006A0001124911D0895AA1BBB1B51E107C0AA1F6D
:1006B000BB1FA617B70710F0A61BB70B881F991F03
:1006C0005A95A9F780959095BC01CD010895FC013C
:1006D00088279927E89421912032E9F3293010F0F6
:1006E0002E30C8F32B3241F02D3239F4689404C017
:1006F0000E948503820F911D219120532A30C0F35F
:100700001EF4909581959F4F08957AE0979F902DC4
:0E071000879F802D910D11240895F894FFCF3E
:10071E00000000000100456C206E756D65726F2043
:10072E006465626520657374617220656E747265AE
:10073E0020302079203235350A0D00496E677265FA
:10074E00736520756E2076616C6F7220656E7472A3
:10075E00652030207920323535207061726120524B
:10076E003A0A0D00496E677265736520756E2076C4
:10077E00616C6F7220656E74726520302079203244
:10078E003535207061726120473A0A0D00496E6757
:10079E007265736520756E2076616C6F7220656E62
:1007AE007472652030207920323535207061726187
:0607BE0020423A0A0D0082
:00000001FF
