S00E00004C65645247422E7372656326
S11300000C943B000C9458000C9458000C94580029
S11300100C9458000C9458000C9458000C945800FC
S11300200C9458000C9458000C9458000C945800EC
S11300300C9458000C9458000C9487000C945800AD
S11300400C9458000C9458000C94BD000C94580067
S11300500C9458000C9404010C9458000C9458000F
S11300600C9458000C9458001002180236023E02F8
S11300705D026502830211241FBECFEFD8E0DEBF0C
S1130080CDBF11E0A0E0B1E0E6E4F6E002C00590E7
S11300900D92A63AB107D9F721E0A6EAB1E001C072
S11300A01D92AA3FB207E1F70E949C020C9421031F
S11300B00C94000082E085BD85E084BD8FEF87BD90
S11300C0EEE6F0E0808182608083089584B18660EA
S11300D084B90895EAE7F0E0108210927B00ACE75F
S11300E0B0E08C9180688C938C9180628C93808139
S11300F08760808380818062808380818860808340
S113010080818068808380818064808308951F92C9
S11301100F920FB60F9211248F939F938091AC018D
S11301209091AD01019711F58091A8019091A901D9
S1130130892B79F481E090E09093A9018093A80140
S113014085B1806285B98091AE019091AF0187BD80
S11301500DC01092A9011092A80185B18F7D85B9B7
S11301608091AE019091AF01809587BD9F918F9151
S11301700F900FBE0F901F9018951F920F920FB6FD
S11301800F9211242F933F938F939F93EF93FF9399
S1130190CF93DF931F92CDB7DEB719828091C6004B
S11301A0898389818D3089F08091A6019091A7017E
S11301B09C012F5F3F4F3093A7012093A601298113
S11301C0FC01EB52FE4F208311C0E091A601F09197
S11301D0A701EB52FE4F108281E090E09093B301AF
S11301E08093B2011092A7011092A6010F90DF91A3
S11301F0CF91FF91EF919F918F913F912F910F900C
S11302000FBE0F901F9018951F920F920FB60F926A
S113021011248F939F938091790090E09093B10182
S11302208093B0019F918F910F900FBE0F901F90FC
S113023018959C01E1E8F0E0908192609083273466
S1130240310589F02235310521F02234310591F54B
S113025014C0E0E8F0E08081896C808370938900A9
S1130260609388000895E0E8F0E0808189638083EA
S113027070938B0060938A0008956830710524F4AC
S113028084B18F7D84B90895653F710534F084B1DC
S1130290806284B985B1806285B984B1806284B991
S11302A081E090E09093AD018093AC017093AF0135
S11302B06093AE0108951092D40160E070E082E58D
S11302C090E00E94190160E070E087E490E00E94F1
S11302D0190160E070E082E490E00E941901089541
S11302E0609100017091010116161706C4F4809103
S11302F0B0019091B1018091B0019091B101860F4C
S1130300971F8F3F910509F050F48091B0019091AF
S1130310B101680F791F82E590E00E941901609194
S113032002017091030116161706C4F48091B001FE
S11303309091B1018091B0019091B101860F971F06
S11303408F3F910509F050F48091B0019091B10173
S1130350680F791F87E490E00E94190160910401FD
S11303607091050116161706C4F48091B00190919E
S1130370B1018091B0019091B101860F971F8F3F19
S1130380910509F050F48091B0019091B101680F8A
S1130390791F82E490E00E9419010895EF92FF9280
S11303A00F931F93CF93DF937C01EB0185ED91E0D5
S11303B00E94FB028C0185ED91E00E94D00288E24C
S11303C091E00E94D0020F3F110509F060F4CC0FB8
S11303D0DD1FC050DF4F1983088381E090E0F701EF
S11303E09183808307C086E091E00E94D002F701E8
S11303F011821082DF91CF911F910F91FF90EF90A6
S11304000895CF93DF93E091D4018E2F90E087304D
S1130410910508F08EC0FC01EC5CFF4F0C94F502D2
S11304208BE291E00E94D00281E08093D40181C0EC
S11304308091B2019091B301892B09F47AC0109292
S1130440B3011092B20160E070E08AEA91E00E9488
S1130450CE018091AA019091AB01892B21F082E019
S11304608093D40166C01092D40163C084E591E006
S11304700E94D00283E08093D4015BC08091B201DA
S11304809091B301892B09F454C01092B3011092D6
S1130490B20161E070E08AEA91E00E94CE018091AD
S11304A0AA019091AB01892B21F084E08093D401BF
S11304B040C082E08093D4013CC08DE791E00E946B
S11304C0D00285E08093D40134C08091B201909130
S11304D0B301892B71F11092B3011092B20162E061
S11304E070E08AEA91E00E94CE018091AA01909185
S11304F0AB01892B21F086E08093D4011AC084E0FB
S11305008093D40116C0C0E0D1E06881798182E58E
S113051090E00E9419016A817B8187E490E00E9447
S113052019016C817D8182E490E00E94190110928E
S1130530D401DF91CF9108950E945A000E94660071
S113054087E690E00E94EC020E946A0078940E9480
S11305505B010E9401020E947001FBCF1092C10056
S113056096E09093C2008093C4000895E1ECF0E01B
S11305708081886080830895E1ECF0E0808180616F
S113058080830895E1ECF0E08081806880830895A1
S11305908091C00085FFFCCF08958093C600089524
S11305A0EF92FF920F931F93CF937C01C0E007C09B
S11305B00E94C802F80180810E94CD02CF5F8701AA
S11305C00C0F111DF80180818111F2CFCF911F9181
S11305D00F91FF90EF9008950E94AE020E94B60220
S11305E00E94BC020E94C2020895EE0FFF1F0590F4
S11305F0F491E02D0994FC0188279927E89421912E
S11306002032E9F3293010F02E30C8F32B3241F0B8
S11306102D3239F4689404C00E941903820F911D8D
S1130620219120532A30C0F31EF4909581959F4F59
S113063008957AE0979F902D879F802D910D112426
S10906400895F894FFCFB9
S1130646000000000100456C206E756D65726F2018
S11306566465626520657374617220656E74726583
S113066620302079203235350A0D00496E677265CF
S1130676736520756E2076616C6F7220656E747278
S11306866520302079203235352070617261205220
S11306963A0A0D00496E677265736520756E207699
S11306A6616C6F7220656E74726520302079203219
S11306B63535207061726120473A0A0D00496E672C
S11306C67265736520756E2076616C6F7220656E37
S11306D6747265203020792032353520706172615C
S10906E620423A0A0D0057
S9030000FC
