S00E00004C65645247422E7372656326
S11300000C943B000C9458000C9458000C94580029
S11300100C9458000C9458000C9458000C945800FC
S11300200C9458000C9458000C9458000C945800EC
S11300300C9458000C9458000C9487000C945800AD
S11300400C9458000C9458000C94BD000C94580067
S11300500C9458000C9404010C9458000C9458000F
S11300600C9458000C945800FF01070225022D023D
S11300704C025402720211241FBECFEFD8E0DEBF3F
S1130080CDBF11E0A0E0B1E0E4E2F6E002C00590EB
S11300900D92A03AB107D9F721E0A0EAB1E001C07E
S11300A01D92AA3FB207E1F70E948B020C94100341
S11300B00C94000082E085BD85E084BD8FEF87BD90
S11300C0EEE6F0E0808182608083089584B18662E8
S11300D084B90895EAE7F0E0108210927B00ACE75F
S11300E0B0E08C9180688C938C9180628C93808139
S11300F08460808380818062808380818860808343
S113010080818068808380818064808308951F92C9
S11301100F920FB60F9211248F939F938091A60193
S11301209091A701019711F58091A2019091A301EB
S1130130892B79F481E090E09093A3018093A2014C
S113014085B1806285B98091A8019091A90187BD8C
S11301500DC01092A3011092A20185B18F7D85B9C3
S11301608091A8019091A901809587BD9F918F915D
S11301700F900FBE0F901F9018951F920F920FB6FD
S11301800F9211242F933F938F939F93EF93FF9399
S1130190CF93DF931F92CDB7DEB719828091C6004B
S11301A0898389818D3089F08091A0019091A1018A
S11301B09C012F5F3F4F3093A1012093A00129811F
S11301C0FC01EB52FE4F208311C0E091A001F0919D
S11301D0A101EB52FE4F108281E090E09093B301B5
S11301E08093B2011092A1011092A0010F90DF91AF
S11301F0CF91FF91EF919F918F913F912F910F900C
S11302000FBE0F901F9018951F920F920FB60F926A
S113021011248F939F938091790090E09093B10182
S11302208093B0019F918F910F900FBE0F901F90FC
S113023018959C01E1E8F0E0908192609083273466
S1130240310589F02235310521F022343105F9F4E4
S113025014C0E0E8F0E08081896C808370938900A9
S1130260609388000895E0E8F0E0808189638083EA
S113027070938B0060938A00089581E090E09093DE
S1130280A7018093A6017093A9016093A801089522
S11302901092D40160E070E082E590E00E941901C0
S11302A060E070E087E490E00E94190168E070E08B
S11302B082E490E00E94190108956091AA0170916E
S11302C0AB018091B0019091B101860F971F9923E2
S11302D0A4F08091B0019091B101860F971F8F3FD8
S11302E0910509F054F48091B0019091B101680F27
S11302F0791F82E590E00E9419016091AC01709130
S1130300AD018091B0019091B101860F971F99239F
S1130310A4F08091B0019091B101860F971F8F3F97
S1130320910509F054F48091B0019091B101680FE6
S1130330791F87E490E00E9419016091AE017091E9
S1130340AF018091B0019091B101860F971F0A9778
S11303509CF08091B0019091B101860F971F853F69
S1130360910554F48091B0019091B101680F791F07
S113037082E490E00E9419010895EF92FF920F9396
S11303801F93CF93DF937C01EB0185ED91E00E94F5
S1130390EA028C0185ED91E00E94BF0282E291E0C5
S11303A00E94BF020F3F110509F060F4CC0FDD1F5E
S11303B0C655DE4F1983088381E090E0F7019183ED
S11303C0808307C080E091E00E94BF02F7011182A0
S11303D01082DF91CF911F910F91FF90EF900895BC
S11303E0CF93DF93E091D4018E2F90E08730910575
S11303F008F08EC0FC01EC5CFF4F0C94E40285E233
S113040091E00E94BF0281E08093D40181C0809179
S1130410B2019091B301892B09F47AC01092B3010F
S11304201092B20160E070E084EA91E00E94BD01A4
S11304308091A4019091A501892B21F082E0809301
S1130440D40166C01092D40163C08EE491E00E948E
S1130450BF0283E08093D4015BC08091B20190918C
S1130460B301892B09F454C01092B3011092B20164
S113047061E070E084EA91E00E94BD018091A401F2
S11304809091A501892B21F084E08093D40140C090
S113049082E08093D4013CC087E791E00E94BF02D0
S11304A085E08093D40134C08091B2019091B3016E
S11304B0892B71F11092B3011092B20162E070E0E5
S11304C084EA91E00E94BD018091A4019091A5016C
S11304D0892B21F086E08093D4011AC084E08093B4
S11304E0D40116C0CAEAD1E06881798182E590E03E
S11304F00E9419016A817B8187E490E00E941901BE
S11305006C817D8182E490E00E9419011092D401F3
S1130510DF91CF9108950E945A000E94660087E6F9
S113052090E00E94DB020E946A0078940E944801D5
S11305300E94F0010E945D01FBCF1092C10096E081
S11305409093C2008093C4000895E1ECF0E08081B0
S1130550886080830895E1ECF0E08081806180838D
S11305600895E1ECF0E080818068808308958091B3
S1130570C00085FFFCCF08958093C6000895EF92D4
S1130580FF920F931F93CF937C01C0E007C00E949A
S1130590B702F80180810E94BC02CF5F87010C0F73
S11305A0111DF80180818111F2CFCF911F910F911C
S11305B0FF90EF9008950E949D020E94A5020E9460
S11305C0AB020E94B1020895EE0FFF1F0590F49153
S11305D0E02D0994FC0188279927E8942191203281
S11305E0E9F3293010F02E30C8F32B3241F02D32CC
S11305F039F4689404C00E940803820F911D21916C
S113060020532A30C0F31EF4909581959F4F08958E
S11306107AE0979F902D879F802D910D1124089546
S1070620F894FFCF78
S1130624456C206E756D65726F2064656265206526
S11306347374617220656E7472652030207920327F
S113064435350A0D00496E677265736520756E2031
S113065476616C6F7220656E747265203020792027
S1130664323535207061726120523A0A0D00496EA8
S1130674677265736520756E2076616C6F72206590
S11306846E747265203020792032353520706172A1
S11306946120473A0A0D00496E67726573652075D7
S11306A46E2076616C6F7220656E747265203020E2
S11306B47920323535207061726120423A0A0D0086
S9030000FC
