:100000000C943B000C9458000C9458000C9458002D
:100010000C9458000C9458000C9458000C94580000
:100020000C9458000C9458000C9458000C945800F0
:100030000C9458000C9458000C9487000C945800B1
:100040000C9458000C9458000C94D3000C94580055
:100050000C9458000C941A010C9458000C945800FD
:100060000C9458000C945800290231024F02570298
:1000700076027E029C0211241FBECFEFD8E0DEBFC5
:10008000CDBF11E0A0E0B1E0E8ECF6E002C00590E1
:100090000D92A03AB107D9F721E0A0EAB1E001C082
:1000A0001D92AA3FB207E1F70E94B5020C946203C9
:1000B0000C94000085E085BD82E084BD8FEF87BD94
:1000C000EEE6F0E0808182608083089584B18662EC
:1000D00084B90895EAE7F0E0108210927B00ACE763
:1000E000B0E08C9180648C938C9180628C93808141
:1000F0008760808380818062808380818860808344
:1001000080818068808380818064808308951F92CD
:100110000F920FB60F9211248F939F938091A60197
:100120009091A7010197C1F58091A8019091A90133
:10013000823F910524F085B18F7D85B92DC08091D6
:10014000A8019091A901089724F485B1806285B92E
:1001500023C08091A2019091A301892B81F481E0B9
:1001600090E09093A3018093A20185B1806285B94C
:100170008091A8019091A901819587BD0DC0109231
:10018000A3011092A20185B18F7D85B98091A8014C
:100190009091A901815087BD9F918F910F900FBEC3
:1001A0000F901F9018951F920F920FB60F92112467
:1001B0002F933F938F939F93EF93FF93CF93DF936F
:1001C0001F92CDB7DEB719828091C60089838981DD
:1001D0008D3089F08091A0019091A1019C012F5F49
:1001E0003F4F3093A1012093A0012981FC01EB52E4
:1001F000FE4F208311C0E091A001F091A101EB52CC
:10020000FE4F108281E090E09093B3018093B201A1
:100210001092A1011092A0010F90DF91CF91FF9158
:10022000EF919F918F913F912F910F900FBE0F9063
:100230001F9018951F920F920FB60F9211248F9353
:100240009F938091790090E09093B1018093B001E9
:100250009F918F910F900FBE0F901F9018959C014A
:10026000E1E8F0E090819D6090832734310501F151
:100270002235310521F022343105E9F532C06830EC
:10028000710564F4E0E8F0E080818F7780838081FD
:100290008F7B808385B1826085B90895E0E8F0E0C6
:1002A0008081816C808370938900609388000895B9
:1002B0006830710564F4E0E8F0E080818F7D808330
:1002C00080818F7E808385B1846085B90895E0E860
:1002D000F0E080818163808370938B0060938A005B
:1002E000089581E090E09093A7018093A601709318
:1002F000A9016093A80108951092D40160E070E014
:1003000082E590E00E942F0160E070E087E490E0D9
:100310000E942F0160E070E082E490E00E942F01D3
:100320000895EF92FF920F931F93CF93DF93209145
:10033000B0013091B10144E6429FC001439F900D4E
:1003400011246FEF70E00E940E03FB01CAEAD1E0B6
:1003500028813981629FC001639F900D729F900D2B
:10036000112424E630E0B9010E940E037B014A818A
:100370005B81E49FC001E59F900DF49F900D1124D7
:10038000B9010E940E038B014C815D81E49FC00185
:10039000E59F900DF49F900D1124B9010E940E036A
:1003A000EB01B70182E590E00E942F01B80187E4DC
:1003B00090E00E942F01BE0182E490E00E942F0194
:1003C000DF91CF911F910F91FF90EF900895EF92E1
:1003D000FF920F931F93CF93DF937C01EB0185ED89
:1003E00091E00E943C038C0185ED91E00E94E902BE
:1003F00082E291E00E94E9020F3F110509F060F4EA
:10040000CC0FDD1FC655DE4F1983088381E090E0D5
:10041000F7019183808307C080E091E00E94E902A8
:10042000F70111821082DF91CF911F910F91FF9000
:10043000EF900895CF93DF93E091D4018E2F90E059
:100440008730910508F08EC0FC01EC5CFF4F0C94E6
:10045000220385E291E00E94E90281E08093D401C9
:1004600081C08091B2019091B301892B09F47AC0C7
:1004700060E070E084EA91E00E94E7011092B3012D
:100480001092B2018091A4019091A501892B21F0D5
:1004900082E08093D40166C01092D40163C08EE4E0
:1004A00091E00E94E90283E08093D4015BC08091D7
:1004B000B2019091B301892B09F454C061E070E05E
:1004C00084EA91E00E94E7011092B3011092B20118
:1004D0008091A4019091A501892B21F084E0809363
:1004E000D40140C082E08093D4013CC087E791E012
:1004F0000E94E90285E08093D40134C08091B2016A
:100500009091B301892B71F162E070E084EA91E08F
:100510000E94E7011092B3011092B2018091A401F0
:100520009091A501892B21F086E08093D4011AC017
:1005300084E08093D40116C0CAEAD1E06881798151
:1005400082E590E00E942F016A817B8187E490E040
:100550000E942F016C817D8182E490E00E942F0136
:100560001092D401DF91CF9108950E945A000E9409
:10057000660087E690E00E9405030E946A00789476
:100580000E947C010E941A020E949101FBCF1092EE
:10059000C10096E09093C2008093C4000895E1ECFE
:1005A000F0E08081886080830895E1ECF0E0808154
:1005B000806180830895E1ECF0E080818068808331
:1005C00008958091C00085FFFCCF08958093C600F8
:1005D0000895EF92FF920F931F93CF937C01C0E099
:1005E00007C00E94E102F80180810E94E602CF5F0D
:1005F00087010C0F111DF80180818111F2CFCF917D
:100600001F910F91FF90EF9008950E94C7020E94E2
:10061000CF020E94D5020E94DB02089597FB072EAD
:1006200016F4009407D077FD09D00E94280307FC38
:1006300005D03EF4909581959F4F089570956195F2
:100640007F4F0895EE0FFF1F0590F491E02D099460
:10065000AA1BBB1B51E107C0AA1FBB1FA617B707E8
:1006600010F0A61BB70B881F991F5A95A9F7809504
:100670009095BC01CD010895FC0188279927E89445
:1006800021912032E9F3293010F02E30C8F32B32BB
:1006900041F02D3239F4689404C00E945A03820F4D
:1006A000911D219120532A30C0F31EF4909581951D
:1006B0009F4F08957AE0979F902D879F802D910DF1
:0806C00011240895F894FFCF06
:1006C800456C206E756D65726F2064656265206586
:1006D8007374617220656E747265203020792032DF
:1006E80035350A0D00496E677265736520756E2091
:1006F80076616C6F7220656E747265203020792087
:10070800323535207061726120523A0A0D00496E07
:10071800677265736520756E2076616C6F722065EF
:100728006E74726520302079203235352070617200
:100738006120473A0A0D00496E6772657365207536
:100748006E2076616C6F7220656E74726520302041
:100758007920323535207061726120423A0A0D00E5
:00000001FF
