:100000000C9434000C9451000C9451000C94510049
:100010000C9451000C9451000C9451000C9451001C
:100020000C9451000C9451000C9451000C9451000C
:100030000C9451000C9451000C9451000C945100FC
:100040000C945D000C9451000C94AA000C94510087
:100050000C9451000C9477010C9451000C945100B5
:100060000C9451000C94510011241FBECFEFD8E026
:10007000DEBFCDBF11E0A0E0B1E0E6EFF5E002C0E9
:1000800005900D92A437B107D9F721E0A4E7B1E0BC
:1000900001C01D92A73CB207E1F70E94BF010C947A
:1000A000F9020C94000085E085BD83E686BDEEE68E
:1000B000F0E080818160808308951F920F920FB6D7
:1000C0000F9211242F933F934F935F936F937F93DE
:1000D0008F939F93AF93BF93EF93FF93CF93DF9350
:1000E000CDB7DEB72597DEBFCDBF809176018F5F9C
:1000F0008093760183E686BD80917601843691F403
:100100001092760180917F01909180014AE0BE01BA
:100110006F5F7F4F0E94BC020E94510282E391E018
:100120000E9451020F900F900F900F900F90DF914F
:10013000CF91FF91EF91BF91AF919F918F917F915F
:100140006F915F914F913F912F910F900FBE0F9044
:100150001F9018951F920F920FB60F9211242F9394
:100160003F938F939F93EF93FF93CF93DF931F92D0
:10017000CDB7DEB719828091C600898389818D3021
:1001800089F080917401909175019C012F5F3F4F20
:1001900030937501209374012981FC01EE55FE4FC7
:1001A000208311C0E0917401F0917501EE55FE4F6E
:1001B000108281E090E09093810180938001109201
:1001C0007501109274010F90DF91CF91FF91EF9123
:1001D0009F918F913F912F910F900FBE0F901F9085
:1001E00018958091000190910101019751F484E0EC
:1001F00091E00E94510282E090E09093010180938F
:1002000000018091000190910101029751F488E072
:1002100091E00E94510283E090E09093010180936D
:1002200000018091000190910101039751F48CE04D
:1002300091E00E94510281E090E09093010180934F
:100240000001089584B18E6084B90895EAE7F0E072
:10025000108210927B00ACE7B0E08C9180688C93A8
:100260008C9180628C9380818260808380818062A7
:1002700080838081886080838081806880838081A2
:100280008064808308959C01E1E8F0E090819360B0
:100290009083E1EBF0E09081956090832734310505
:1002A00091F022353105D9F022343105F9F4E0E836
:1002B000F0E08081896C8083862F972F909389004E
:1002C000809388000895E0E8F0E08081896380836E
:1002D000862F972F90938B0080938A000895E0EBF0
:1002E000F0E08081836C80836093B30008951F9257
:1002F0000F920FB60F9211248F9380917900809303
:100300007F018F910F900FBE0F901F90189582EA7A
:1003100091E00E949E028F3F910509F0E4F4209144
:10032000770130917801F901EE0FFF1FE758FE4F7A
:100330009183808381E090E0909303018093020198
:10034000C901019663E070E00E9476029093780103
:1003500080937701089585E2E0E1F1E0A2E8B1E061
:1003600001900D928A95E1F782E891E00E94510296
:1003700081E090E0909303018093020108950E9430
:1003800053000E94220187E690E00E946D020E94C5
:10039000260178940E94F10080910201909103015E
:1003A000892B31F18091770190917801813091050D
:1003B00071F082309105A1F0892BD1F485E391E0B1
:1003C0000E945102109203011092020111C08AE4AE
:1003D00091E00E945102109203011092020108C0A4
:1003E0008FE591E00E9451021092030110920201E8
:1003F00080917F018F3F29F16091790170917A019D
:100400006115710541F080917F01680F711D82E5D2
:1004100090E00E94430160917B0170917C01611525
:10042000710521F087E490E00E94430160917D0115
:1004300070917E016115710521F082E490E00E94C7
:1004400043018091800190918101892B09F4A4CF0F
:1004500010928101109280010E9487019DCF10921D
:10046000C10096E09093C2008093C4000895E1EC2F
:10047000F0E08081886080830895E1ECF0E0808185
:10048000806180830895E1ECF0E080818068808362
:1004900008958091C00085FFFCCF08958093C60029
:1004A0000895EF92FF920F931F93CF937C01C0E0CA
:1004B00007C00E944902F80180810E944E02CF5F6E
:1004C00087010C0F111DF80180818111F2CFCF91AE
:1004D0001F910F91FF90EF9008950E942F020E94AC
:1004E00037020E943D020E944302089597FB072EA7
:1004F00016F4009407D077FD09D00E948A0207FC09
:1005000005D03EF4909581959F4F08957095619523
:100510007F4F0895AA1BBB1B51E107C0AA1FBB1F39
:10052000A617B70710F0A61BB70B881F991F5A957F
:10053000A9F780959095BC01CD010895FC0188270D
:100540009927E89421912032E9F3293010F02E30D8
:10055000C8F32B3241F02D3239F4689404C00E9464
:10056000C702820F911D219120532A30C0F31EF43F
:10057000909581959F4F0895BB274A3031F4992378
:1005800022F4BDE2909581959F4F0C94D0027AE0C1
:10059000979F902D879F802D910D11240895BB2743
:1005A000FB015527AA27880F991FAA1FA41710F02F
:1005B000A41B83955051B9F7A05DAA3308F0A95D3B
:1005C000A193009779F7B111B1931192CB010C94DB
:1005D000E902DC01FC01672F71917723E1F7329783
:1005E00004C07C916D9370836291AE17BF07C8F30E
:0605F0000895F894FFCF0E
:1005F60001000100523A2000473A2000423A20000A
:10060600456C206E756D65726F2064656265206548
:100616007374617220656E747265203020792032A1
:1006260035350A0D00496E677265736520656C2065
:1006360076616C6F7220520A0D00496E677265739F
:100646006520656C2076616C6F7220470A0D004943
:100656006E677265736520656C2076616C6F7220BB
:04066600420A0D0037
:00000001FF
