S00E00004C65645247422E7372656326
S11300000C943B000C9458000C9458000C94580029
S11300100C9458000C9458000C9458000C945800FC
S11300200C9458000C9458000C9458000C945800EC
S11300300C9458000C9458000C940E010C94580025
S11300400C9425010C9458000C94EB010C9458006A
S11300500C9458000C94F3000C9458000C94580021
S11300600C9458000C94580080028802A002A80244
S1130070C102C902E10211241FBECFEFD8E0DEBFE6
S1130080CDBF11E0A0E0B1E0E0EAF6E002C00590E7
S11300900D92A63AB107D9F721E0A6EAB1E001C072
S11300A01D92A13FB207E1F70E945A000C944E033F
S11300B00C9400000E944C010E943C010E944801E3
S11300C087E690E00E94E2010E946E0078940E940C
S11300D032020E9471020E948E00FBCFEAE7F0E038
S11300E0108210927B00ACE7B0E08C9180648C931A
S11300F08C9180628C938C9183608C9380818760D7
S11301008083808180628083808188608083808115
S1130110806880838081806480830895EF92FF9259
S11301200F931F93CF93DF938091AC019091AD0116
S1130130892B09F451C01092AD011092AC012091A9
S1130140AA013091AB0144E6429FC001439F900D48
S113015011246FEF70E00E94FA02E0E0F1E04081C8
S113016051819B013327429FC001439F900D529FB1
S1130170900D1124C4E6D0E0BE010E94FA027B0176
S113018042815381429FC001439F900D529F900D25
S11301901124BE010E94FA028B0144815581429FC1
S11301A0C001439F900D529F900D1124BE010E94E7
S11301B0FA02EB01B701772782E590E00E94520131
S11301C0B801772787E490E00E945201BE017727A7
S11301D082E490E00E945201DF91CF911F910F9130
S11301E0FF90EF9008951F920F920FB60F92112473
S11301F08F939F938091790090E09093AB018093CB
S1130200AA0181E090E09093AD018093AC019F91AD
S11302108F910F900FBE0F901F9018951F920F9201
S11302200FB60F9211248F939F938091A601909102
S1130230A701892B19F085B1806285B99F918F91AF
S11302400F900FBE0F901F9018951F920F920FB62C
S11302500F9211248F939F938091A6019091A701EF
S1130260892B19F085B18F7D85B99F918F910F905E
S11302700FBE0F901F90189585B5836085BD83E0F0
S113028084BD17BCEEE6F0E080818360808308952E
S113029084B1866284B90895E1E8F0E080818B60DE
S11302A0808308958734910509F18235910529F0F9
S11302B08234910509F047C032C06330710564F49B
S11302C0E0E8F0E080818F77808380818F7B80837A
S11302D085B1826085B90895E0E8F0E08081816CA1
S11302E0808370938900609388000895633071055A
S11302F064F4E0E8F0E080818F7D808380818F7EEC
S1130300808385B1846085B90895E0E8F0E0808158
S11303108163808370938B0060938A0008956330B7
S1130320710544F41092A7011092A60185B1806270
S113033085B9089581E090E09093A7018093A60188
S113034083E084BD67BD08951092C10096E0909348
S1130350C2008093C4000895E1ECF0E080818860DD
S113036080830895E1ECF0E08081806180830895CA
S1130370E1ECF0E080818068808308958091C00082
S113038085FFFCCF08958093C6000895EF92FF92F5
S11303900F931F93CF937C01C0E007C00E94BE015E
S11303A0F80180810E94C301CF5F87010C0F111DEA
S11303B0F80180818111F2CFCF911F910F91FF90AD
S11303C0EF9008950E94A4010E94AC010E94B20122
S11303D00E94B80108951F920F920FB60F92112434
S11303E02F933F938F939F93EF93FF93CF93DF9339
S11303F01F92CDB7DEB719828091C60089838981A7
S11304008D3089F08091AE019091AF019C012F5FF6
S11304103F4F3093AF012093AE012981FC01EF528D
S1130420FE4F208311C0E091AE01F091AF01EF5275
S1130430FE4F108281E090E09093A9018093A8017F
S11304401092AF011092AE010F90DF91CF91FF9106
S1130450EF919F918F913F912F910F900FBE0F902D
S11304601F9018951092D00160E070E082E590E052
S11304700E94520160E070E087E490E00E94520123
S113048060E070E082E490E00E94520108950F93CE
S11304901F93CF93DF93EC0181ED91E00E94280339
S11304A08C0181ED91E00E94C60188E291E00E94F6
S11304B0C6010F3F110509F048F4CC0FDD1FC050F1
S11304C0DF4F1983088381E090E006C086E091E065
S11304D00E94C60180E090E0DF91CF911F910F91BF
S11304E00895CF93DF93E091D0018E2F90E0873071
S11304F0910508F07CC0FC01EC5CFF4F0C940E03EA
S11305008BE291E00E94C60181E08093D0016FC02C
S11305108091A8019091A901892B09F468C01092D7
S1130520A9011092A80180E090E00E944702892B63
S113053021F082E08093D0015AC01092D00157C0BC
S113054084E591E00E94C60183E08093D0014FC00E
S11305508091A8019091A901892B09F448C01092B7
S1130560A9011092A80181E090E00E944702892B22
S113057021F084E08093D0013AC082E08093D001DE
S113058036C08DE791E00E94C60185E08093D001DA
S11305902EC08091A8019091A901892B41F110925C
S11305A0A9011092A80182E090E00E944702892BE1
S11305B021F086E08093D0011AC084E08093D001BA
S11305C016C0C0E0D1E06881798182E590E00E94A4
S11305D052016A817B8187E490E00E9452016C8120
S11305E07D8182E490E00E9452011092D001DF915B
S11305F0CF91089597FB072E16F4009407D077FD4A
S113060009D00E94140307FC05D03EF4909581950F
S11306109F4F0895709561957F4F0895EE0FFF1FCA
S11306200590F491E02D0994AA1BBB1B51E107C06E
S1130630AA1FBB1FA617B70710F0A61BB70B881F6E
S1130640991F5A95A9F780959095BC01CD010895FD
S1130650FC0188279927E89421912032E9F3293075
S113066010F02E30C8F32B3241F02D3239F4689457
S113067004C00E944603820F911D219120532A3009
S1130680C0F31EF4909581959F4F08957AE0979F4B
S1130690902D879F802D910D11240895F894FFCFFC
S11306A0320032007D00456C206E756D65726F20DE
S11306B06465626520657374617220656E74726529
S11306C020302079203235350A0D00496E67726575
S11306D0736520756E2076616C6F7220656E74721E
S11306E065203020792032353520706172612052C6
S11306F03A0A0D00496E677265736520756E20763F
S1130700616C6F7220656E747265203020792032BE
S11307103535207061726120473A0A0D00496E67D1
S11307207265736520756E2076616C6F7220656EDC
S11307307472652030207920323535207061726101
S109074020423A0A0D00FC
S9030000FC
