S00D000052656C6F6A2E737265631B
S11300000C9454000C9471000C9471000C947100C5
S11300100C9471000C9471000C9471000C94710098
S11300200C9471000C9471000C9471000C94710088
S11300300C9471000C9471000C9471000C94710078
S11300400C9480000C9471000C9471000C94710059
S11300500C9471000C9471000C9471000C94710058
S11300600C9471000C947100001F000000001F002C
S1130070001F101010101F00001F181818181F0060
S1130080001F1C1C1C1C1F00001F1E1E1E1E1F0008
S1130090001F1F1F1F1F1F0003070F1F0F07030051
S11300A0181C1E1F1E1C180011241FBECFEFD8E001
S11300B0DEBFCDBF11E0A0E0B1E0EAE3F9E002C0A9
S11300C005900D92A031B107D9F721E0A0E1B1E08C
S11300D001C01D92A731B207E1F70E941F030C94DF
S11300E09B040C94000080E284B985E085BD83E61E
S11300F086BDEEE6F0E08081816080837894089587
S11301001F920F920FB60F9211242F933F934F9388
S11301105F936F937F938F939F93AF93BF93EF936B
S1130120FF93809110018F5F80931001823339F423
S11301300E943B0383E68093B20010921001FF916A
S1130140EF91BF91AF919F918F917F916F915F914B
S11301504F913F912F910F900FBE0F901F901895C4
S113016065B1982F9074492F50E055954795559552
S113017047955595479555954795982F9078292FEC
S113018030E0022E232F000C221F330B000C221F01
S1130190331F962F997F492B242B25B968B1982FAB
S11301A09071492F50E0559547955595479555952C
S11301B04795982F9072292F30E0359527953595DE
S11301C0279535952795962F997F492B242B28B968
S11301D09BB192609BB99BB191609BB925ED2A9527
S11301E0F1F700009BB19E7F9BB99BB19D7F9BB9AA
S11301F095ED9A95F1F7000065B120E1829FC00169
S11302001124AC014074552755954795559547954C
S113021055954795559547959C0120783327022E8F
S1130220232F000C221F330B000C221F331F362FE9
S1130230397F432B242B25B948B19C0120713327E6
S11302403595279535952795359527958072992766
S1130250959587959595879595958795942F997FED
S1130260292B822B88B98BB182608BB98BB18160C9
S11302708BB985ED8A95F1F700008BB18E7F8BB930
S11302808BB18D7F8BB995ED9A95F1F700000895A8
S113029065B1982F9074492F50E055954795559521
S11302A047955595479555954795982F9078292FBB
S11302B030E0022E232F000C221F330B000C221FD0
S11302C0331F962F997F492B242B25B968B1982F7A
S11302D09071492F50E055954795559547955595FB
S11302E04795982F9072292F30E0359527953595AD
S11302F0279535952795962F997F492B242B28B937
S11303009BB191609BB9EFE9FFE03197F1F700C031
S113031000009BB19E7F9BB9EFE9FFE03197F1F7B5
S113032000C0000065B1F0E18F9FC0011124AC0151
S11303304074552755954795559547955595479537
S1130340559547959C0120783327022E232F000CC6
S1130350221F330B000C221F331F362F397F432BF0
S1130360242B25B948B19C01207133273595279555
S11303703595279535952795807299279595879575
S11303809595879595958795942F997F292B822B01
S113039088B98BB181608BB98FE99FE00197F1F740
S11303A000C000008BB18E7F8BB9EFE9FFE031977D
S11303B0F1F700C00000089581E00E94480108950B
S11303C00F931F93CF93DF93009789F0D62F8C015F
S11303D0C0E00BC0F801EC0FF11D80810E94B00059
S11303E08AE68A95F1F700C0CF5FCD1798F3DF91C5
S11303F0CF911F910F910895623031F0633031F045
S1130400613029F4805C03C08C5E01C08C5A806822
S11304100E9448010895EF92FF920F931F93CF9388
S1130420DF937C01862F90E0880F991F880F991F16
S1130430880F991F8064C0E0D0E00DC0F701EC0F75
S1130440FD1F149101E0080F0E944801812F0E94B2
S1130450B0002196802FC830D10580F3DF91CF9171
S11304601F910F91FF90EF900895CF93DF938FE545
S11304709AEE0197F1F700C0000085B1897F85B934
S113048088B1897F88B91BB887B1866087B984B180
S1130490866084B984B1866084B987B1866087B97F
S11304A08AB183608AB985B1897F85B988B186604C
S11304B088B98BB181608BB98FE99FE00197F1F71F
S11304C000C000008BB18E7F8BB98FE99FE001974C
S11304D0F1F700C0000085B1897F85B988B18660D5
S11304E088B98BB181608BB98FE99FE00197F1F7EF
S11304F000C000008BB18E7F8BB98FE99FE001971C
S1130500F1F700C0000085B1897F85B988B1897F82
S1130510846088B98BB181608BB98FE99FE00197C2
S1130520F1F700C000008BB18E7F8BB98FE99FE09B
S11305300197F1F700C0000088E20E9448018CE0B6
S11305400E94480160E0C0E00AC0D1E0D60F8C2FC1
S113055090E088599F4F0E940B02C85F6D2FC034F2
S1130560A0F3DF91CF9108958CE00E944801089593
S1130570EF92FF920F931F93CF93DF9300D000D09D
S11305801F92CDB7DEB77B01FE01319625E0DF0176
S11305901D922A95E9F724E030E00FC06AE070E08C
S11305A00E947304E1E0F0E0EC0FFD1FE20FF31F83
S11305B08083862F972F21503109009779F7BFEF59
S11305C0EB16FB0681F403C00F5F1F4F02C000E06F
S11305D010E0E1E0F0E0EC0FFD1FE00FF11F2081DF
S11305E0222391F304C005E010E00E191F0999239A
S11305F084F48DE20E94B0000CC0E1E0F0E0EC0F66
S1130600FD1FE00FF11F8081805D0E94B0000F5F2D
S11306101F4F053011058CF30F900F900F900F9022
S11306200F90DF91CF911F910F91FF90EF9008955C
S11306300E9435020E94DC010E94B40208950E94C7
S113064073000E9418030E94B1030E945E04FDCF50
S113065080910B0164E60E946704911108C08091A7
S11306600B0190E060E971E00E94730408958091A9
S11306700B018370089581E080931501909114011A
S1130680911180E080931401E6E0F1E080818F5FB6
S113069080838C3309F064C0108281818F5F8183F1
S11306A08C3309F05DC0118282818F5F828388312F
S11306B009F056C0128283818F5F8383803231F4C4
S11306C084818F5F848381E083833FC080910901AB
S11306D08F31C1F480910A01843061F080910A0164
S11306E0863041F080910A01893021F080910A011D
S11306F08B3059F5E6E0F1E084818F5F848381E0FB
S1130700838323C0809109018E3161F480910A01B1
S11307108230D9F4E6E0F1E084818F5F848381E064
S1130720838313C0809109018D3179F480910A018A
S1130730823059F40E942803882339F0E6E0F1E07E
S113074084818F5F848381E0838380910A018D306B
S113075039F4E6E0F1E081E0848385818F5F85836D
S113076008951092160186E0E6E0F1E0A0E0B1E021
S113077001900D928A95E1F70895CF93DF938091CC
S113078015018823E1F11092150161E084E00E94D3
S1130790FC01C6E0D1E08B8162E070E090E00E9451
S11307A0B8028FE20E94B0008C8162E070E090E0B9
S11307B00E94B8028FE20E94B0008D8162E070E076
S11307C090E00E94B80260E084E00E94FC018A810B
S11307D062E070E090E00E94B8028AE30E94B000F8
S11307E0898162E070E090E00E94B8028AE30E948E
S11307F0B000888162E070E090E00E94B802DF916E
S1130800CF91089580911101882309F456C08091F5
S11308101401882309F446C0809112018730D1F075
S11308208A3021F0843009F042C028C0809113013D
S1130830811108C08091000162E070E090E00E94A4
S1130840B80235C08091050162E070E090E00E943A
S1130850B8022DC080911301811108C0809101015B
S113086062E070E090E00E94B80221C0809104012F
S113087062E070E090E00E94B80219C08091130118
S1130880811108C08091020162E070E090E00E9452
S1130890B8020DC08091030162E070E090E00E9414
S11308A0B80205C062E08CE091E00E94E001E2E160
S11308B0F1E0618180810E94FC0108950E9402049C
S11308C080911601811102C00E94BD030895991BF5
S11308D079E004C0991F961708F0961B881F7A9533
S11308E0C9F78095089597FB072E16F4009407D056
S11308F077FD09D00E94870407FC05D03EF490954B
S113090081959F4F0895709561957F4F0895AA1B17
S1130910BB1B51E107C0AA1FBB1FA617B70710F0E6
S1130920A61BB70B881F991F5A95A9F78095909518
S10D0930BC01CD010895F894FFCF37
S113093A0A1D0E1304150A1D0E130462202000005A
S9030000FC
