S00D000052656C6F6A2E737265631B
S11300000C945B000C9478000C9478000C947800A9
S11300100C9478000C9478000C9478000C9478007C
S11300200C9478000C9478000C9478000C9478006C
S11300300C9478000C9478000C9478000C9478005C
S11300400C9487000C9478000C9478000C9478003D
S11300500C9478000C9478000C9478000C9478003C
S11300600C9478000C94780068069006CD060A0774
S113007047078407C107001F000000001F00001F7E
S1130080101010101F00001F181818181F00001F50
S11300901C1C1C1C1F00001F1E1E1E1E1F00001FF8
S11300A01F1F1F1F1F0003070F1F0F070300181C2C
S11300B01E1F1E1C180011241FBECFEFD8E0DEBF88
S11300C0CDBF11E0A0E0B1E0EEE1F1E102C00590A6
S11300D00D92A832B107D9F721E0A8E2B1E001C03E
S11300E01D92AF32B207E1F70E9426030C948D08EB
S11300F00C94000080E284B985E085BD83E686BD6A
S1130100EEE6F0E0808181608083789408951F9208
S11301100F920FB60F9211242F933F934F935F9337
S11301206F937F938F939F93AF93BF93EF93FF93BB
S1130130809128018F5F80932801823339F40E94D3
S11301405C0383E68093B20010922801FF91EF9143
S1130150BF91AF919F918F917F916F915F914F91DB
S11301603F912F910F900FBE0F901F90189565B17E
S1130170982F9074492F50E055954795559547957C
S11301805595479555954795982F9078292F30E0A8
S1130190022E232F000C221F330B000C221F331FAF
S11301A0962F997F492B242B25B968B1982F9071EC
S11301B0492F50E055954795559547955595479541
S11301C0982F9072292F30E03595279535952795EE
S11301D035952795962F997F492B242B28B99BB1C8
S11301E092609BB99BB191609BB925ED2A95F1F77B
S11301F000009BB19E7F9BB99BB19D7F9BB995ED00
S11302009A95F1F7000065B120E1829FC0011124A5
S1130210AC01407455275595479555954795559587
S11302204795559547959C0120783327022E232F17
S1130230000C221F330B000C221F331F362F397F73
S1130240432B242B25B948B19C01207133273595C4
S113025027953595279535952795807299279595F6
S113026087959595879595958795942F997F292BB3
S1130270822B88B98BB182608BB98BB181608BB9C9
S113028085ED8A95F1F700008BB18E7F8BB98BB128
S11302908D7F8BB995ED9A95F1F70000089565B1BE
S11302A0982F9074492F50E055954795559547954B
S11302B05595479555954795982F9078292F30E077
S11302C0022E232F000C221F330B000C221F331F7E
S11302D0962F997F492B242B25B968B1982F9071BB
S11302E0492F50E055954795559547955595479510
S11302F0982F9072292F30E03595279535952795BD
S113030035952795962F997F492B242B28B99BB196
S113031091609BB9EFE9FFE03197F1F700C000006D
S11303209BB19E7F9BB9EFE9FFE03197F1F700C0E5
S1130330000065B1F0E18F9FC0011124AC0140744D
S113034055275595479555954795559547955595F1
S113035047959C0120783327022E232F000C221F5F
S1130360330B000C221F331F362F397F432B242BD2
S113037025B948B19C0120713327359527953595CA
S11303802795359527958072992795958795959505
S1130390879595958795942F997F292B822B88B9DA
S11303A08BB181608BB98FE99FE00197F1F700C0B1
S11303B000008BB18E7F8BB9EFE9FFE03197F1F745
S11303C000C00000089581E00E944F0108950F933A
S11303D01F93CF93DF93009789F0D62F8C01C0E051
S11303E00BC0F801EC0FF11D80810E94B7008AE672
S11303F08A95F1F700C0CF5FCD1798F3DF91CF91C5
S11304001F910F910895623031F0633031F0613003
S113041029F4805C03C08C5E01C08C5A80680E9401
S11304204F010895EF92FF920F931F93CF93DF93A1
S11304307C01862F90E0880F991F880F991F880FE1
S1130440991F8064C0E0D0E00DC0F701EC0FFD1FE0
S1130450149101E0080F0E944F01812F0E94B70000
S11304602196802FC830D10580F3DF91CF911F9161
S11304700F91FF90EF900895CF93DF938FE59AEE5D
S11304800197F1F700C0000085B1897F85B988B173
S1130490897F88B91BB887B1866087B984B18660C3
S11304A084B984B1866084B987B1866087B98AB11A
S11304B083608AB985B1897F85B988B1866088B936
S11304C08BB181608BB98FE99FE00197F1F700C090
S11304D000008BB18E7F8BB98FE99FE00197F1F714
S11304E000C0000085B1897F85B988B1866088B96C
S11304F08BB181608BB98FE99FE00197F1F700C060
S113050000008BB18E7F8BB98FE99FE00197F1F7E3
S113051000C0000085B1897F85B988B1897F846076
S113052088B98BB181608BB98FE99FE00197F1F7AE
S113053000C000008BB18E7F8BB98FE99FE00197DB
S1130540F1F700C0000088E20E944F018CE00E9495
S11305504F0160E0C0E00AC0D1E0D60F8C2F90E0DC
S11305608A589F4F0E941202C85F6D2FC034A0F3B7
S1130570DF91CF9108958CE00E944F010895EF928E
S1130580FF920F931F93CF93DF9300D000D01F925D
S1130590CDB7DEB77B01FE01319625E0DF011D9268
S11305A02A95E9F724E030E00FC06AE070E00E9489
S11305B05F08E1E0F0E0EC0FFD1FE20FF31F808322
S11305C0862F972F21503109009779F7BFEFEB164B
S11305D0FB0681F403C00F5F1F4F02C000E010E070
S11305E0E1E0F0E0EC0FFD1FE00FF11F208122237A
S11305F091F304C005E010E00E191F09992384F457
S11306008DE20E94B7000CC0E1E0F0E0EC0FFD1FAA
S1130610E00FF11F8081805D0E94B7000F5F1F4FC4
S1130620053011058CF30F900F900F900F900F90E1
S1130630DF91CF911F910F91FF90EF9008950E9449
S11306403C020E94E3010E94BB0208950E947A00CA
S11306500E941F030E94D2030E944E06FDCF809188
S11306600B0164E60E945308911108C080910B01AC
S113067090E060E971E00E945F08089580910B01A9
S1130680837008959091050189E2989F812D11242A
S113069082958F7024E6829F90191124911108C0CD
S11306A08091050190E060E971E00E945F0808957F
S11306B0809105018370089581E080932D019091CC
S11306C02C01911180E080932C01E6E0F1E080811F
S11306D08F5F80838C3309F064C0108281818F5FC7
S11306E081838C3309F05DC0118282818F5F8283A4
S11306F0883109F056C0128283818F5F83838032F0
S113070031F484818F5F848381E083833FC080914F
S113071009018F31C1F480910A01843061F0809124
S11307200A01863041F080910A01893021F08091DC
S11307300A018B3059F5E6E0F1E084818F5F848310
S113074081E0838323C0809109018E3161F480911B
S11307500A018230D9F4E6E0F1E084818F5F84837A
S113076081E0838313C0809109018D3179F48091F4
S11307700A01823059F40E942F03882339F0E6E0FD
S1130780F1E084818F5F848381E0838380910A0117
S11307908D3039F4E6E0F1E081E0848385818F5F78
S11307A08583089510922E0186E0E6E0F1E0A0E052
S11307B0B1E001900D928A95E1F70895CF93DF930C
S11307C080912D018823E1F110922D0161E084E0F4
S11307D00E940302C6E0D1E08B8162E070E090E009
S11307E00E94BF028FE20E94B7008C8162E070E039
S11307F090E00E94BF028FE20E94B7008D8162E008
S113080070E090E00E94BF0260E084E00E94030276
S11308108A8162E070E090E00E94BF028AE30E9455
S1130820B700898162E070E090E00E94BF028AE331
S11308300E94B700888162E070E090E00E94BF02ED
S1130840DF91CF910895CF93DF9380912D01882379
S1130850E1F110922D0161E084E00E940302C0E006
S1130860D1E08B8162E070E090E00E94BF028FE2F1
S11308700E94B7008C8162E070E090E00E94BF02A9
S11308808FE20E94B7008D8162E070E090E00E94E8
S1130890BF0260E084E00E9403028A8162E070E0AB
S11308A090E00E94BF028AE30E94B700898162E05F
S11308B070E090E00E94BF028AE30E94B700888142
S11308C062E070E090E00E94BF02DF91CF91089552
S11308D0CF93DF93C62FD42F8823B9F086E0E0E0CE
S11308E0F1E0A6E0B1E001900D928A95E1F70E9453
S11308F023046C2F8D2F0E940302EAE2F1E0D083DF
S1130900C18381E08093290112C086E0E6E0F1E032
S1130910A0E0B1E001900D928A95E1F7842F0E9446
S11309200302EAE2F1E0D083C18310922901DF914E
S1130930CF9108958D3471F130F4813471F08434A1
S113094009F446C008958E3609F412C1833709F4B8
S11309502CC1883609F045C1EEC0611101C06FEFAA
S1130960E0E0F1E08581860F8583958189E2989F97
S1130970812D112482958F7024E6829F9019112471
S11309809583858181112DC161112BC183E68093EB
S113099005010895662371F0809104018C3021F4DF
S11309A081E0809304010895E0E0F1E084818F5FA9
S11309B08483089580910401813021F48CE0809334
S11309C004010895E0E0F1E0848181508483089576
S11309D0662309F458C080910401843061F0809149
S11309E00401863041F080910401893021F0809126
S11309F004018B3071F4809103018E3121F481E084
S1130A00809303010895E0E0F1E083818F5F8383A5
S1130A10089580910A01823091F40E944203882350
S1130A2071F0809103018C3121F481E08093030102
S1130A300895E0E0F1E083818F5F838308958091DE
S1130A400A01823091F40E94420381110EC0809108
S1130A5003018D3121F481E0809303010895E0E0E6
S1130A60F1E083818F5F83830895809103018F3147
S1130A7021F481E0809303010895E0E0F1E08381B3
S1130A808F5F8383089580910401843061F08091A5
S1130A900401863041F080910401893021F0809175
S1130AA004018B3071F480910301813021F48EE1D3
S1130AB0809303010895E0E0F1E083818150838312
S1130AC0089580910A01823091F40E9442038823A0
S1130AD071F080910301813021F48CE18093030152
S1130AE00895E0E0F1E0838181508383089580914B
S1130AF00A01823091F40E94420381110EC0809158
S1130B000301813021F48DE1809303010895E0E035
S1130B10F1E08381815083830895809103018130C2
S1130B2021F48FE1809303010895E0E0F1E08381F3
S1130B30815083830895662369F08091020187318F
S1130B4019F4109202010895E0E0F1E082818F5FD0
S1130B508283089580910201811104C087E180930A
S1130B6002010895E0E0F1E08281815082830895DA
S1130B70662369F0809101018B3319F4109201010D
S1130B800895E0E0F1E081818F5F81830895809191
S1130B900101811104C08BE3809301010895E0E019
S1130BA0F1E08181815081830895662369F0809109
S1130BB000018B3319F4109200010895E0E0F1E094
S1130BC080818F5F8083089580910001811104C02A
S1130BD08BE3809300010895E0E0F1E0808181508F
S1130BE08083089580912901882309F456C0809157
S1130BF02C01882309F446C080912A018730D1F062
S1130C008A3021F0843009F042C028C080912B0141
S1130C10811108C08091000162E070E090E00E94C0
S1130C20BF0235C08091050162E070E090E00E944F
S1130C30BF022DC080912B01811108C08091010158
S1130C4062E070E090E00E94BF0221C08091040144
S1130C5062E070E090E00E94BF0219C080912B0115
S1130C60811108C08091020162E070E090E00E946E
S1130C70BF020DC08091030162E070E090E00E9429
S1130C80BF0205C062E08CE091E00E94E701EAE265
S1130C90F1E0618180810E9403020895CF93DF9384
S1130CA01F92CDB7DEB783E28983CE0101960E94FD
S1130CB008080E94F205E0912E018E2F90E0873003
S1130CC0910508F0A1C1FC01EC5CFF4F0C94730882
S1130CD08981813419F08434B1F01FC086E0E6E0E4
S1130CE0F1E0A0E0B1E001900D928A95E1F781E096
S1130CF080932E014AE050E061E070E081E090E0F2
S1130D000E94680481C110922E014AE050E061E023
S1130D1070E080E090E00E9468040E94DE0374C1E9
S1130D208981823401F118F4813431F06DC1833446
S1130D3039F1843469F068C182E080932E0147E080
S1130D4050E061E070E081E090E00E9468045CC1E2
S1130D5010922E0147E050E061E070E080E090E006
S1130D600E94680451C161E070E081E490E00E9457
S1130D709A040E94230461E08AE00E94030244C1B1
S1130D8060E070E081E490E00E949A040E942304F1
S1130D9061E08AE00E94030237C18981823401F153
S1130DA018F4813431F030C1833439F1843469F07A
S1130DB02BC183E080932E0144E050E061E070E0B9
S1130DC081E090E00E9468041FC110922E0144E06B
S1130DD050E061E070E080E090E00E94680414C19B
S1130DE061E070E08DE490E00E949A040E94230484
S1130DF061E087E00E94030207C160E070E08DE4D7
S1130E0090E00E949A040E94230461E087E00E941B
S1130E100302FAC08981823401F118F4813431F07B
S1130E20F3C0833439F1843469F0EEC084E08093F4
S1130E302E0144E050E060E070E081E090E00E9428
S1130E406804E2C010922E0144E050E060E070E0DB
S1130E5080E090E00E946804D7C061E070E084E420
S1130E6090E00E949A040E94230461E084E00E94BE
S1130E700302CAC060E070E084E490E00E949A0437
S1130E800E94230461E084E00E940302BDC08981C2
S1130E90823401F118F4813431F0B6C0833439F16D
S1130EA0843469F0B1C085E080932E0147E050E0BE
S1130EB060E070E081E090E00E946804A5C01092B8
S1130EC02E0147E050E060E070E080E090E00E9496
S1130ED068049AC061E070E088E690E00E949A0499
S1130EE00E94230460E084E00E9403028DC060E05D
S1130EF070E088E690E00E949A040E94230460E077
S1130F0084E00E94030280C08981823401F118F4D4
S1130F10813431F079C0833439F1843469F074C098
S1130F2086E080932E014AE050E060E070E081E0CA
S1130F3090E00E94680468C010922E014AE050E0DC
S1130F4060E070E080E090E00E9468045DC061E0D1
S1130F5070E08EE690E00E949A040E94230460E010
S1130F6087E00E94030250C060E070E08EE690E0EB
S1130F700E949A040E94230460E087E00E94030216
S1130F8043C08981823439F118F4813431F03CC092
S1130F90833471F18434A1F037C010922E014AE0F9
S1130FA050E060E070E081E090E00E9468044AE074
S1130FB050E060E070E080E090E00E94680424C0AB
S1130FC010922E014AE050E060E070E080E090E092
S1130FD00E94680419C061E070E083E790E00E9419
S1130FE09A040E94230460E08AE00E9403020CC079
S1130FF060E070E083E790E00E949A040E9423047A
S113100060E08AE00E9403020F90DF91CF9108957F
S1131010DC018CE38BB960E070E03FC08AB18F776C
S11310208AB984B1867E84B96330710541F49AB17A
S1131030FB01ED5DFE4F8081892B8AB907C084B125
S1131040FB01ED5DFE4F9081982B94B920E030E0D8
S11310501FC049B1F901E15EFE4F90819423B1F4C0
S1131060660F771F660F771F615F7E4FFB01E20FEC
S1131070F31F80818C932FEF89E698E12150804003
S11310809040E1F700C0000081E008952F5F3F4FDA
S113109024303105F4F26F5F7F4F643071050CF436
S11310A0BDCF80E00895991B79E004C0991F96177D
S11310B008F0961B881F7A95C9F78095089597FBC9
S11310C0072E16F4009407D077FD09D00E94790802
S11310D007FC05D03EF4909581959F4F0895709537
S11310E061957F4F0895EE0FFF1F0590F491E02D59
S11310F00994AA1BBB1B51E107C0AA1FBB1FA6175B
S1131100B70710F0A61BB70B881F991F5A95A9F7AC
S111111080959095BC01CD010895F894FFCF11
S113111E0A1D0E1304150A1D0E130462202000313D
S113112E3233413435364237383943302A23440872
S10B113E2010041008018000D8
S9030000FC
