S00D000052656C6F6A2E737265631B
S11300000C945B000C9478000C9478000C947800A9
S11300100C9478000C9478000C9478000C9478007C
S11300200C9478000C9478000C9478000C9478006C
S11300300C9478000C9478000C9478000C9478005C
S11300400C9485000C9478000C9478000C9478003F
S11300500C9478000C9478000C9478000C9478003C
S11300600C9478000C947800B705DC0531068906F9
S1130070D40629077E07001F000000001F00001F90
S1130080101010101F00001F181818181F00001F50
S11300901C1C1C1C1F00001F1E1E1E1E1F00001FF8
S11300A01F1F1F1F1F0003070F1F0F070300181C2C
S11300B01E1F1E1C180011241FBECFEFD8E0DEBF88
S11300C0CDBF11E0A0E0B1E0E4EFF0E102C00590A3
S11300D00D92A433B107D9F721E0A4E3B1E001C044
S11300E01D92AC33B207E1F70E9425030C94780803
S11300F00C94000085E085BD84E686BDEEE6F0E064
S1130100808181608083789408951F920F920FB646
S11301100F9211242F933F934F935F936F937F9389
S11301208F939F93AF93BF93EF93FF938091340189
S11301308F5F8093340184E686BD809134018436D8
S113014021F40E945D0310923401FF91EF91BF915D
S1130150AF919F918F917F916F915F914F913F915B
S11301602F910F900FBE0F901F90189565B1982F87
S11301709074492F50E05595479555954795559559
S1130180479555954795982F9078292F30E0022E62
S1130190232F000C221F330B000C221F331F962F1A
S11301A0997F492B242B25B968B1982F9071492F39
S11301B050E0559547955595479555954795982FF2
S11301C09072292F30E035952795359527953595EB
S11301D02795962F997F492B242B28B99BB19260A0
S11301E09BB99BB191609BB925ED2A95F1F700006D
S11301F09BB19E7F9BB99BB19D7F9BB995ED9A95D1
S1130200F1F7000065B120E1829FC0011124AC0127
S11302104074552755954795559547955595479558
S1130220559547959C0120783327022E232F000CE7
S1130230221F330B000C221F331F362F397F432B11
S1130240242B25B948B19C01207133273595279576
S11302503595279535952795807299279595879596
S11302609595879595958795942F997F292B822B22
S113027088B98BB182608BB98BB181608BB985ED04
S11302808A95F1F700008BB18E7F8BB98BB18D7F8E
S11302908BB995ED9A95F1F70000089565B1982F03
S11302A09074492F50E05595479555954795559528
S11302B0479555954795982F9078292F30E0022E31
S11302C0232F000C221F330B000C221F331F962FE9
S11302D0997F492B242B25B968B1982F9071492F08
S11302E050E0559547955595479555954795982FC1
S11302F09072292F30E035952795359527953595BA
S11303002795962F997F492B242B28B99BB191606F
S11303109BB9EFE9FFE03197F1F700C000009BB112
S11303209E7F9BB9EFE9FFE03197F1F700C0000031
S113033065B1F0E18F9FC0011124AC0140745527D1
S11303405595479555954795559547955595479591
S11303509C0120783327022E232F000C221F330BFD
S1130360000C221F331F362F397F432B242B25B932
S113037048B19C01207133273595279535952795EC
S113038035952795807299279595879595958795A5
S113039095958795942F997F292B822B88B98BB1BA
S11303A081608BB98FE99FE00197F1F700C00000ED
S11303B08BB18E7F8BB9EFE9FFE03197F1F700C085
S11303C00000089581E00E944E0108950F931F9349
S11303D0CF93DF93009789F0D62F8C01C0E00BC038
S11303E0F801EC0FF11D80810E94B6008AE68A951F
S11303F0F1F700C0CF5FCD1798F3DF91CF911F9134
S11304000F910895623031F0633031F0613029F496
S1130410805C03C08C5E01C08C5A80680E944E01CF
S11304200895EF92FF920F931F93CF93DF937C0174
S1130430862F90E0880F991F880F991F880F991FA6
S11304408064C0E0D0E00DC0F701EC0FFD1F1491F3
S113045001E0080F0E944E01812F0E94B6002196F0
S1130460802FC830D10580F3DF91CF911F910F9178
S1130470FF90EF900895CF93DF938FE59AEE019765
S1130480F1F700C0000085B1897F85B988B1897F03
S113049088B91BB887B1866087B984B1866084B98E
S11304A084B1866084B987B1866087B98AB1836074
S11304B08AB985B1897F85B988B1866088B98BB1DD
S11304C081608BB98FE99FE00197F1F700C00000CC
S11304D08BB18E7F8BB98FE99FE00197F1F700C054
S11304E0000085B1897F85B988B1866088B98BB1F0
S11304F081608BB98FE99FE00197F1F700C000009C
S11305008BB18E7F8BB98FE99FE00197F1F700C023
S1130510000085B1897F85B988B1897F846088B9F5
S11305208BB181608BB98FE99FE00197F1F700C02F
S113053000008BB18E7F8BB98FE99FE00197F1F7B3
S113054000C0000088E20E944E018CE00E944E012F
S113055060E0C0E00AC0D1E0D60F8C2F90E08A584A
S11305609F4F0E941102C85F6D2FC034A0F3DF912A
S1130570CF9108958CE00E944E010895EF92FF926E
S11305800F931F93CF93DF9300D000D01F92CDB76A
S1130590DEB77B01FE01319625E0DF011D922A952D
S11305A0E9F724E030E00FC06AE070E00E944A08F6
S11305B0E1E0F0E0EC0FFD1FE20FF31F8083862FD4
S11305C0972F21503109009779F7BFEFEB16FB06FF
S11305D081F403C00F5F1F4F02C000E010E0E1E0B0
S11305E0F0E0EC0FFD1FE00FF11F2081222391F3B7
S11305F004C005E010E00E191F09992384F48DE26C
S11306000E94B6000CC0E1E0F0E0EC0FFD1FE00F2B
S1130610F11F8081805D0E94B6000F5F1F4F05307F
S113062011058CF30F900F900F900F900F90DF91A6
S1130630CF911F910F91FF90EF9008950E943B027C
S11306400E94E2010E94BA0208950E947A000E9468
S11306501E030E94DF030E949C05FDCFCF93DF930E
S113066000D000D000D0CDB7DEB789E29802812D4A
S11306701124859585958595859597FD8395392FC5
S113068024E6829F30191124311108C0892F990F53
S1130690990B60E971E00E944A0806C0892F8378AB
S11306A01CF481508C6F8F5F26960FB6F894DEBFD2
S11306B00FBECDBFDF91CF91089581E080933901C2
S11306C090913801911180E080933801E2E1F1E0EA
S11306D080818F5F80838C3309F070C010828181A8
S11306E08F5F81838C3309F069C0118282818F5FAF
S11306F08283883109F062C0128283818F5F838391
S1130700803231F484818F5F848381E083834BC0A2
S1130710809115018F31C1F480911601843061F00C
S113072080911601863041F080911601893021F0C4
S1130730809116018B30B9F5E2E1F1E084818F5F9D
S1130740848381E083832FC0809115018E3161F40D
S113075080911601823039F5E2E1F1E084818F5F06
S1130760848381E083831FC0809115018D31D9F486
S1130770809116018230B9F4409112015091130115
S113078060911401709115018091160190911701E7
S11307900E942E03882339F0E2E1F1E084818F5F27
S11307A0848381E08383809116018D3039F4E2E102
S11307B0F1E081E0848385818F5F858308951092C1
S11307C03B0186E0E2E1F1E0ACE0B1E001900D92A2
S11307D08A95E1F70895CF93DF9300D000D000D03D
S11307E0CDB7DEB749835A836B837C838D839E8325
S11307F080913901882309F446C01092390161E0DF
S113080084E00E9402028C8162E070E0082E000CF9
S1130810990B0E94BE028FE20E94B6008D8162E0B5
S113082070E0082E000C990B0E94BE028FE20E9419
S1130830B6008E8162E070E0082E000C990B0E94D5
S1130840BE0260E084E00E9402028B8162E070E0FC
S1130850082E000C990B0E94BE028AE30E94B60087
S11308608A8162E070E0082E000C990B0E94BE029F
S11308708AE30E94B600898162E070E0082E000CD1
S1130880990B0E94BE0226960FB6F894DEBF0FBEE7
S1130890CDBFDF91CF910895CF93DF93D82FC92F88
S11308A086E0ECE0F1E0A2E1B1E001900D928A95DE
S11308B0E1F740910C0150910D0160910E0170918E
S11308C00F0180911001909111010E94EB036C2F94
S11308D08D2F0E940202E6E3F1E0D083C18381E020
S11308E080933501DF91CF910895CF93DF93D82F73
S11308F0C92F86E0E2E1F1E0ACE0B1E001900D92B5
S11309008A95E1F7692F8D2F0E940202E6E3F1E058
S1130910D083C18310923501DF91CF910895CF9395
S113092090911001963009F45CC034F4923059F07F
S1130930943009F06CC055C0993009F452C09B3012
S113094009F065C04EC0C82F40910C0150910D01B3
S113095060910E0170910F0180911001909111012D
S11309600E942E038823F9F080910F018D317CF4CD
S1130970ECE0F1E023818C2FCC0F990B820F911DB9
S113098027FD9A956CE170E00E944A088383809168
S11309900F01811104C08CE180930F014DC08CE1E3
S11309A080930F0149C080910F018E31B4F4ECE0C3
S11309B0F1E023818C2FCC0F990B820F911D27FD21
S11309C09A956DE170E00E944A08838383818111C6
S11309D033C08DE180930F012FC08DE180930F010F
S11309E02BC0ECE0F1E02381082E000C990B820F60
S11309F0911D27FD9A956EE170E00E944A08838359
S1130A008381811119C08EE180930F0115C0ECE040
S1130A10F1E02381082E000C990B820F911D27FD14
S1130A209A956FE170E00E944A0883838381811163
S1130A3003C08FE180930F01CF9108950F93FC01C0
S1130A403081862F660F990B830F911D37FD9A9580
S1130A50642F70E00E944A0880838081821302C060
S1130A60401B40830F91089580913501882309F438
S1130A7062C080913801882309F452C08091360104
S1130A808730F1F08A3021F0843009F04EC030C054
S1130A908091370181110AC080910C0162E070E0FD
S1130AA0082E000C990B0E94BE023FC080911101D8
S1130AB062E070E0082E000C990B0E94BE0235C063
S1130AC08091370181110AC080910D0162E070E0CC
S1130AD0082E000C990B0E94BE0227C080911001C1
S1130AE062E070E0082E000C990B0E94BE021DC04B
S1130AF08091370181110AC080910E0162E070E09B
S1130B00082E000C990B0E94BE020FC080910F01A9
S1130B1062E070E0082E000C990B0E94BE0205C032
S1130B2062E088E191E00E94E601E6E3F1E06181A0
S1130B3080810E94020208950F93CF93DF931F9246
S1130B40CDB7DEB783E28983CE0101960E942408E3
S1130B500E943405E0913B018E2F90E0873091058F
S1130B6008F025C2FC01EC5CFF4F0C945E088981FF
S1130B70813499F486E0E2E1F1E0ACE0B1E0019087
S1130B800D928A95E1F781E080933B018091060103
S1130B90909107010E944C040AC2409112015091A5
S1130BA013016091140170911501809116019091C7
S1130BB017010E94EB03FBC189818234E1F018F430
S1130BC0813431F0F4C1833489F1843459F0EFC1B4
S1130BD082E080933B0180910801909109010E9479
S1130BE04C04E5C110923B018091080190910901E8
S1130BF00E947504DCC101E02FEF44E661E081E16D
S1130C0091E00E941E0540910C0150910D016091EC
S1130C100E0170910F0180911001909111010E94B9
S1130C20EB0361E08AE00E940202C1C101E02FEF00
S1130C3044E66FEF81E191E00E941E0540910C01B2
S1130C4050910D0160910E0170910F01809110017E
S1130C50909111010E94EB0361E08AE00E9402027C
S1130C60A6C189818234F9F018F4813431F09FC12E
S1130C708334A1F1843471F09AC183E080933B0101
S1130C8080910A0190910B010E944C0480E00E9423
S1130C908F048DC110923B0180910A0190910B0148
S1130CA00E94750484C100E020E04CE061E080E132
S1130CB091E00E941E0540910C0150910D0160913C
S1130CC00E0170910F0180911001909111010E9409
S1130CD0EB0361E087E00E94020269C100E020E0CA
S1130CE04CE06FEF80E191E00E941E0540910C0101
S1130CF050910D0160910E0170910F0180911001CE
S1130D00909111010E94EB0361E087E00E940202CE
S1130D104EC189818234E1F018F4813431F047C145
S1130D20833461F1843459F042C184E080933B01FF
S1130D3080910401909105010E944C0438C11092E5
S1130D403B0180910401909105010E9475042FC11B
S1130D5081E00E948F0440910C0150910D0160913B
S1130D600E0170910F0180911001909111010E9468
S1130D70EB0361E084E00E94020219C18FEF0E943C
S1130D808F0440910C0150910D0160910E017091FE
S1130D900F0180911001909111010E94EB0361E019
S1130DA084E00E94020203C189818234E1F018F4D4
S1130DB0813431F0FCC0833489F1843459F0F7C0B4
S1130DC085E080933B0180910201909103010E9490
S1130DD04C04EDC010923B018091020190910301FB
S1130DE00E947504E4C001E02FEF48E161E08EE069
S1130DF091E00E941E0540910C0150910D016091FB
S1130E000E0170910F0180911001909111010E94C7
S1130E10EB0360E084E00E940202C9C001E02FEF0E
S1130E2048E16FEF8EE091E00E941E0540910C01B5
S1130E3050910D0160910E0170910F01809110018C
S1130E40909111010E94EB0360E084E00E94020291
S1130E50AEC089818234E1F018F4813431F0A7C046
S1130E60833489F1843459F0A2C086E080933B0135
S1130E7080910001909101010E944C0498C010924D
S1130E803B0180910001909101010E9475048FC083
S1130E9001E02FEF4CE361E08DE091E00E941E053C
S1130EA040910C0150910D0160910E0170910F0160
S1130EB080911001909111010E94EB0360E087E0A2
S1130EC00E94020274C001E02FEF4CE36FEF8DE04B
S1130ED091E00E941E0540910C0150910D0160911A
S1130EE00E0170910F0180911001909111010E94E7
S1130EF0EB0360E087E00E94020259C089818234DA
S1130F0009F118F4813431F052C08334B1F18434DE
S1130F1081F04DC010923B0180910001909101013C
S1130F200E944C0480910001909101010E9475047B
S1130F303EC010923B0180910001909101010E94FA
S1130F40750435C001E02FEF4CE361E08CE091E0E3
S1130F500E941E0540910C0150910D0160910E01FB
S1130F6070910F0180911001909111010E94EB0387
S1130F7060E08AE00E9402021AC001E02FEF4CE315
S1130F806FEF8CE091E00E941E0540910C0150919E
S1130F900D0160910E0170910F01809110019091EB
S1130FA011010E94EB0360E08AE00E9402020F90AC
S1130FB0DF91CF910F910895DC018CE38BB960E050
S1130FC070E03CC08AB18F778AB984B1867E84B9D7
S1130FD06330710541F49AB1FB01E15DFE4F8081FC
S1130FE0892B8AB907C084B1FB01E15DFE4F908172
S1130FF0982B94B920E030E01CC049B1F901E55DBB
S1131000FE4F9081942399F4660F771F660F771F24
S1131010655E7E4FFB01E20FF31F80818C938FEF9F
S11310209CE70197F1F700C0000081E008952F5F6D
S11310303F4F243031050CF36F5F7F4F64307105EF
S11310400CF4C0CF80E008950F931F93CF93DF93E8
S11310501F92CDB7DEB78C01CE0101960E94DC074A
S1131060811104C09FEF90933A010EC08981909141
S11310703A01891306C08F3F21F0F801808381E093
S113108003C080933A0180E00F90DF91CF911F91CC
S11310900F91089597FB072E16F4009407D077FD5F
S11310A009D00E94640807FC05D03EF49095819510
S11310B09F4F0895709561957F4F0895EE0FFF1F20
S11310C00590F491E02D0994AA1BBB1B51E107C0C4
S11310D0AA1FBB1FA617B70710F0A61BB70B881FC4
S11310E0991F5A95A9F780959095BC01CD01089553
S10710F0F894FFCF9E
S11310F40A00070004000A010701040101010101B7
S11311040101010101010101202000313233413484
S113111435364237383943302A2344082010041022
S1071124080180003A
S9030000FC
