:100000000C9434000C9446000C9446000C9446006A
:100010000C9446000C9446000C9446000C94460048
:100020000C9446000C9446000C9446000C94460038
:100030000C9446000C9446000C9446000C94460028
:100040000C9448000C9446000C9446000C94460016
:100050000C9446000C9446000C9446000C94460008
:100060000C9446000C94460011241FBECFEFD8E03C
:10007000DEBFCDBF21E0A0E0B1E001C01D92A23003
:10008000B207E1F70E946B000C9478000C9400001A
:100090001F920F920FB60F9211248F939F9380910E
:1000A000000190910101019690930101809300015C
:1000B000019751F495B180E2892785B983E686BD21
:1000C00010920101109200019F918F910F900FBE2D
:1000D0000F901F90189580E284B985E085BD83E676
:1000E00086BDEEE6F0E08081816080837894FFCF6A
:0400F000F894FFCFB2
:00000001FF
