:100000000C9454000C9471000C9471000C947100C9
:100010000C9471000C9471000C9471000C9471009C
:100020000C9471000C9471000C9471000C9471008C
:100030000C9471000C9471000C9471000C9471007C
:100040000C9471000C9471000C9471000C9471006C
:100050000C9471000C9471000C9471000C9471005C
:100060000C9471000C947100001F000000001F0030
:10007000001F101010101F00001F181818181F0064
:10008000001F1C1C1C1C1F00001F1E1E1E1E1F000C
:10009000001F1F1F1F1F1F0003070F1F0F07030055
:1000A000181C1E1F1E1C180011241FBECFEFD8E005
:1000B000DEBFCDBF11E0A0E0B1E0E6E1F6E002C0B6
:1000C00005900D92AC32B107D9F721E0ACE2B1E076
:1000D00001C01D92AD32B207E1F70E94ED020C940F
:1000E00009030C94000065B1982F9074492F50E0DB
:1000F00055954795559547955595479555954795E8
:10010000982F9078292F30E0022E232F000C221FE9
:10011000330B000C221F331F962F997F492B242B62
:1001200025B968B1982F9071492F50E055954795A2
:100130005595479555954795982F9072292F30E002
:10014000359527953595279535952795962F997F40
:10015000492B242B28B99BB192609BB99BB191602C
:100160009BB92DE02A95F1F700009BB19E7F9BB9CA
:100170009BB19D7F9BB99DE09A95F1F7000065B119
:1001800020E1829FC0011124AC0140745527559590
:1001900047955595479555954795559547959C0194
:1001A00020783327022E232F000C221F330B000C44
:1001B000221F331F362F397F432B242B25B948B1FB
:1001C0009C012071332735952795359527953595D1
:1001D00027958072992795958795959587959595FB
:1001E0008795942F997F292B822B88B98BB18260B8
:1001F0008BB98BB181608BB98DE08A95F1F70000E6
:100200008BB18E7F8BB98BB18D7F8BB99DE09A9529
:10021000F1F70000089565B1982F9074492F50E0D0
:1002200055954795559547955595479555954795B6
:10023000982F9078292F30E0022E232F000C221FB8
:10024000330B000C221F331F962F997F492B242B31
:1002500025B968B1982F9071492F50E05595479571
:100260005595479555954795982F9072292F30E0D1
:10027000359527953595279535952795962F997F0F
:10028000492B242B28B99BB191609BB9E9EFF0E091
:100290003197F1F700C000009BB19E7F9BB9E9EF59
:1002A000F0E03197F1F700C0000065B1F0E18F9FF9
:1002B000C0011124AC0140745527559547955595BB
:1002C000479555954795559547959C012078332737
:1002D000022E232F000C221F330B000C221F331F72
:1002E000362F397F432B242B25B948B19C0120712F
:1002F0003327359527953595279535952795807220
:100300009927959587959595879595958795942F98
:10031000997F292B822B88B98BB181608BB989EFAA
:1003200090E00197F1F700C000008BB18E7F8BB990
:10033000E9EFF0E03197F1F700C00000089581E0A7
:100340000E940B0108950F931F93CF93DF930097A3
:1003500069F0D62F8C01C0E007C0F801EC0FF11D49
:1003600080810E947300CF5FCD17B8F3DF91CF91EA
:100370001F910F910895623031F0633031F0613098
:1003800029F4805C03C08C5E01C08C5A80680E9496
:100390000B010895EF92FF920F931F93CF93DF937A
:1003A0007C01862F90E0880F991F880F991F880F76
:1003B000991F8064C0E0D0E00DC0F701EC0FFD1F75
:1003C000149101E0080F0E940B01812F0E9473001D
:1003D0002196802FC830D10580F3DF91CF911F91F6
:1003E0000F91FF90EF900895CF93DF9385EA9EE001
:1003F0000197F1F700C0000085B1897F85B988B108
:10040000897F88B91BB887B1866087B984B1866057
:1004100084B984B1866084B987B1866087B98AB1AE
:1004200083608AB985B1897F85B988B1866088B9CA
:100430008BB181608BB989EF90E00197F1F700C033
:1004400000008BB18E7F8BB989EF90E00197F1F7B7
:1004500000C0000085B1897F85B988B1866088B900
:100460008BB181608BB989EF90E00197F1F700C003
:1004700000008BB18E7F8BB989EF90E00197F1F787
:1004800000C0000085B1897F85B988B1897F84600B
:1004900088B98BB181608BB989EF90E00197F1F752
:1004A00000C000008BB18E7F8BB989EF90E001977F
:1004B000F1F700C0000088E20E940B018CE00E946E
:1004C0000B0160E0C0E00AC0D1E0D60F8C2F90E0B5
:1004D00088599F4F0E94CA01C85F6D2FC034A0F396
:1004E000DF91CF9108950E94F4010E949F016BE07B
:1004F00080E091E00E94A30161E080E00E94BB01E6
:1005000066E08CE091E00E94A3010895DC018FE792
:100510008BB960E070E036C08AB18F778AB984B158
:10052000867E84B96330710541F49AB1FB01E95DBF
:10053000FE4F8081892B8AB907C084B1FB01E95D38
:10054000FE4F9081982B94B920E030E016C049B15D
:10055000F901ED5DFE4F9081942369F4660F771FDA
:10056000660F771F6D5E7E4FFB01E20FF31F8081E8
:100570008C9381E008952F5F3F4F243031053CF389
:100580006F5F7F4F643071053CF280E008950F93F8
:100590001F93CF93DF931F92CDB7DEB78C01CE01AF
:1005A00001960E948602811104C09FEF90932C0156
:1005B0000EC0898190912C01891306C08F3F21F0D4
:1005C000F801808381E003C080932C0180E00F90CC
:1005D000DF91CF911F910F910895CF93DF931F92D9
:1005E000CDB7DEB719820E947302CE0101960E9438
:1005F000C7028823D1F389810E94730061E086E0FD
:100600000E94BB018FE097E20197F1F700C0000064
:06061000ECCFF894FFCFCF
:100616004344794D20505255454241005465636C20
:10062600613A003132334134353642373839433056
:0C0636002A234408201004100801800052
:00000001FF
