:100000000C9454000C9471000C9471000C947100C9
:100010000C9471000C9471000C9471000C9471009C
:100020000C9471000C9471000C9471000C9471008C
:100030000C9471000C9471000C9471000C9471007C
:100040000C9471000C9471000C9471000C9471006C
:100050000C9471000C9471000C9471000C9471005C
:100060000C9471000C947100001F000000001F0030
:10007000001F101010101F00001F181818181F0064
:10008000001F1C1C1C1C1F00001F1E1E1E1E1F000C
:10009000001F1F1F1F1F1F0003070F1F0F07030055
:1000A000181C1E1F1E1C180011241FBECFEFD8E005
:1000B000DEBFCDBF11E0A0E0B1E0E4ECF4E002C0AF
:1000C00005900D92A030B107D9F721E0A0E0B1E092
:1000D00001C01D92A030B207E1F70E9454020C94B7
:1000E00060020C94000065B1982F9074492F50E085
:1000F00055954795559547955595479555954795E8
:10010000982F9078292F30E0022E232F000C221FE9
:10011000330B000C221F331F962F997F492B242B62
:1001200025B968B1982F9071492F50E055954795A2
:100130005595479555954795982F9072292F30E002
:10014000359527953595279535952795962F997F40
:10015000492B242B28B99BB192609BB99BB191602C
:100160009BB925ED2A95F1F700009BB19E7F9BB9C5
:100170009BB19D7F9BB995ED9A95F1F7000065B114
:1001800020E1829FC0011124AC0140745527559590
:1001900047955595479555954795559547959C0194
:1001A00020783327022E232F000C221F330B000C44
:1001B000221F331F362F397F432B242B25B948B1FB
:1001C0009C012071332735952795359527953595D1
:1001D00027958072992795958795959587959595FB
:1001E0008795942F997F292B822B88B98BB18260B8
:1001F0008BB98BB181608BB985ED8A95F1F70000E1
:100200008BB18E7F8BB98BB18D7F8BB995ED9A9524
:10021000F1F70000089565B1982F9074492F50E0D0
:1002200055954795559547955595479555954795B6
:10023000982F9078292F30E0022E232F000C221FB8
:10024000330B000C221F331F962F997F492B242B31
:1002500025B968B1982F9071492F50E05595479571
:100260005595479555954795982F9072292F30E0D1
:10027000359527953595279535952795962F997F0F
:10028000492B242B28B99BB191609BB9EFE9FFE082
:100290003197F1F700C000009BB19E7F9BB9EFE959
:1002A000FFE03197F1F700C0000065B1F0E18F9FEA
:1002B000C0011124AC0140745527559547955595BB
:1002C000479555954795559547959C012078332737
:1002D000022E232F000C221F330B000C221F331F72
:1002E000362F397F432B242B25B948B19C0120712F
:1002F0003327359527953595279535952795807220
:100300009927959587959595879595958795942F98
:10031000997F292B822B88B98BB181608BB98FE9AA
:100320009FE00197F1F700C000008BB18E7F8BB981
:10033000EFE9FFE03197F1F700C00000089581E098
:100340000E940B01089582E00E940B010895EF9234
:10035000FF920F931F93CF93DF937C01862F90E042
:10036000880F991F880F991F880F991F8064C0E01C
:10037000D0E00DC0F701EC0FFD1F149101E0080F54
:100380000E940B01812F0E9473002196802FC8309C
:10039000D10580F3DF91CF911F910F91FF90EF90E6
:1003A0000895CF93DF938FE59AEE0197F1F700C0A0
:1003B000000085B1897F85B988B1897F88B91BB86C
:1003C00087B1866087B984B1866084B984B186605C
:1003D00084B987B1866087B98AB183608AB985B1EB
:1003E000897F85B988B1866088B98BB181608BB906
:1003F0008FE99FE00197F1F700C000008BB18E7F7D
:100400008BB98FE99FE00197F1F700C0000085B13B
:10041000897F85B988B1866088B98BB181608BB9D5
:100420008FE99FE00197F1F700C000008BB18E7F4C
:100430008BB98FE99FE00197F1F700C0000085B10B
:10044000897F85B988B1897F846088B98BB18160E3
:100450008BB98FE99FE00197F1F700C000008BB1E5
:100460008E7F8BB98FE99FE00197F1F700C0000004
:1004700088E20E940B018CE00E940B0160E0C0E06A
:100480000AC0D1E0D60F8C2F90E088599F4F0E9470
:10049000A701C85F6D2FC034A0F3DF91CF910895FD
:1004A0008FE00E940B0108950E94D1010E949F01DC
:1004B0000E94A30181E60E9473000E945002FFCFB8
:0404C000F894FFCFDE
:00000001FF
