:100000000C9434000C9451000C9451000C94510049
:100010000C9451000C9451000C9451000C9451001C
:100020000C9451000C9451000C9451000C9451000C
:100030000C9451000C9451000C9451000C945100FC
:100040000C945E000C9451000C9451000C945100DF
:100050000C9451000C9451000C9451000C945100DC
:100060000C9451000C94510011241FBECFEFD8E026
:10007000DEBFCDBF11E0A0E0B1E0E8E3F4E002C0F4
:1000800005900D92A83CB107D9F721E0A8ECB1E0AA
:1000900001C01D92A13DB207E1F70E947B000C94C4
:1000A0001A020C94000085E085BD83E686BDEEE66D
:1000B000F0E0808181608083789408951F920F9290
:1000C0000FB60F9211248F938091C8018F5F809398
:1000D000C80183E686BD8091C801843631F4109250
:1000E000CB011092CA011092C8018F910F900FBEE0
:1000F0000F901F90189581E090E09093CB01809332
:10010000CA010E94530087E60E9493010E949B014E
:100110000E94A2010E94D4010E94D10101E010E0DE
:10012000C0E0D0E00CC00130110521F40E94AD0107
:1001300000E010E021960E94CC010E94D1018D3098
:1001400019F0C430D1057CF38091CA019091CB01A4
:10015000892B11F30E94FD001092CB011092CA016D
:10016000DBCF8AB180648AB92FEF89EF90E021500C
:1001700080409040E1F700C000008BB18F7B8BB9CD
:100180002FEF89EF90E0215080409040E1F700C0D0
:1001900000008BB180648BB925ED2A95F1F7000042
:1001A00008958AB18F7B8AB94E99FECF4E9BFECFC0
:1001B0004E99FECF089520E030E019C04E9BFECF4F
:1001C00080EA8A95F1F74E9B09C08091C90190E0C1
:1001D000880F991F81608093C90105C08091C90172
:1001E000880F8093C9014E99FECF2F5F3F4F283073
:1001F000310524F38091C9010895CF93DF9300D096
:1002000000D01F92CDB7DEB70E94B1000E94D1008E
:100210000E94DB008093CF010E94DB008093CC0121
:100220000E94DB008093CE010E94DB008093D0010E
:100230000E94DB008093CD019091CF012091CC01F1
:1002400030E0290F311D9091CE01290F311D909181
:10025000D001290F311D90E02817390729F080E0DF
:1002600091E00E94B00157C00E94A1018091CF018E
:100270004AE0BE016F5F7F4F90E00E94E50182E29D
:1002800091E00E94B001CE0101960E94B0018CE283
:1002900091E00E94B0018091CC014AE0BE016F5F05
:1002A0007F4F90E00E94E501CE0101960E94B001CF
:1002B0008EE291E00E94B00181E391E00E94B001E2
:1002C0008091CE014AE0BE016F5F7F4F90E00E94B7
:1002D000E501CE0101960E94B0018CE291E00E94FE
:1002E000B0018091D0014AE0BE016F5F7F4F90E086
:1002F0000E94E501CE0101960E94B0018EE291E0DC
:100300000E94B0018091CD014AE0BE016F5F7F4F36
:1003100090E00E94E5010F900F900F900F900F90CA
:10032000DF91CF9108951092C10096E09093C200A2
:100330008093C4000895E1ECF0E0808188608083C0
:1003400008950895E1ECF0E0808180618083089554
:100350008091C00085FFFCCF08958093C60008956A
:10036000EF92FF920F931F93CF937C01C0E007C0E1
:100370000E94A801F80180810E94AD01CF5F870132
:100380000C0F111DF80180818111F2CFCF911F91C7
:100390000F91FF90EF9008958091C0008823E4F7BB
:1003A00008958091C60008958FE391E00E94B00106
:1003B00087E491E00E94B00181E791E00E94B001E2
:1003C00089E991E00E94B0010895BB274A3031F4D9
:1003D000992322F4BDE2909581959F4F0C94F101F1
:1003E000BB27FB015527AA27880F991FAA1FA4170F
:1003F00010F0A41B83955051B9F7A05DAA3308F003
:10040000A95DA193009779F7B111B1931192CB0136
:100410000C940A02DC01FC01672F71917723E1F74C
:10042000329704C07C916D9370836291AE17BF07C1
:08043000C8F30895F894FFCF12
:100438004552524F5220454E20454C2053454E536D
:100448004F522044452048554D45444144212121DF
:10045800210048756D656461643A20002E000D0A1C
:100468000054656D70657261747572613A20004D53
:10047800656E75200A0D00312E20274F4E273C450A
:100488006E7465723E20202D20656E63656E64650E
:1004980072207265676973747261646F72200A0DE5
:1004A80000322E20274F4646273C456E7465723E23
:1004B800202D2061706167617220726567697374AD
:1004C8007261646F72200A0D00332E202752535434
:1004D800273C456E7465723E202D20566F6C7665FC
:1004E8007220616C2065737461646F20696E696342
:0804F80069616C200A0D00008F
:00000001FF
