S015000053656E736F7248756D656461642E73726563DD
S11300000C9434000C9451000C9451000C94510045
S11300100C9451000C9451000C9451000C94510018
S11300200C9451000C9451000C9451000C94510008
S11300300C9451000C9451000C9451000C945100F8
S11300400C945E000C9451000C947F000C945100AD
S11300500C9451000C9451000C9451000C945100D8
S11300600C9451000C94510011241FBECFEFD8E022
S1130070DEBFCDBF11E0A0E0B1E0E6E5F5E002C0EF
S113008005900D92A63EB107D9F722E0A6EEB1E0A5
S113009001C01D92A733B207E1F70E94FF000C9440
S11300A0A9020C94000085E085BD83E686BDEEE6DA
S11300B0F0E0808181608083789408951F920F928C
S11300C00FB60F9211248F939F938091E8018F5F55
S11300D08093E80183E686BD8091E801883C41F481
S11300E081E090E090930F0280930E021092E80159
S11300F09F918F910F900FBE0F901F9018951F9294
S11301000F920FB60F9211242F933F938F939F93C7
S1130110EF93FF93CF93DF931F92CDB7DEB719828E
S11301208091C600898389818D3089F08091E601B0
S11301309091E7019C012F5F3F4F3093E70120939B
S1130140E6012981FC01E05FFD4F208311C0E091AD
S1130150E601F091E701E05FFD4F108281E090E05D
S113016090933102809330021092E7011092E601DD
S11301700F90DF91CF91FF91EF919F918F913F91DC
S11301802F910F900FBE0F901F90189560E071E0B3
S113019080E192E00E946B02892B39F481E090E0C7
S11301A09093EC018093EB01089563E071E080E1AA
S11301B092E00E946B02892B29F41092EC011092B8
S11301C0EB01089567E071E080E192E00E946B0228
S11301D0892B39F481E090E09093EA018093E9015E
S11301E0089584E1EBE0F1E0AEEEB1E001900D9210
S11301F08A95E1F78EEE91E00E943E02089581E037
S113020090E090930F0280930E020E94530087E6C1
S11302100E941C020E9424020E942A020E943002B0
S113022078940E945A028091E9019091EA01892B05
S113023051F01092EA011092E9011092EC0110922F
S1130240EB010E945A028091300290913102892B75
S113025031F010923102109230020E94C600809157
S11302600E0290910F02892BF1F28091EB01909193
S1130270EC01892BC1F20E94850110920F021092A9
S11302800E02D1CF87B1816087B988B18E7F88B9DA
S11302902FE788E391E0215080409040E1F700C0CF
S11302A0000088B1816088B925ED2A95F1F7000036
S11302B0089587B18E7F87B93099FECF309BFECFEA
S11302C03099FECF089520E030E019C0309BFECF76
S11302D080EA8A95F1F7309B09C08091ED0190E0A6
S11302E0880F991F81608093ED0105C08091ED0115
S11302F0880F8093ED013099FECF2F5F3F4F283058
S1130300310524F38091ED010895CF93DF9300D05C
S113031000D01F92CDB7DEB7F8940E9442010E942C
S113032059010E946301809335020E946301809306
S113033032020E946301809334020E94630180931D
S113034036020E94630180933302789480913502CF
S113035090E020913202AC01420F511D9A0140916C
S11303603402240F311D40913602240F311D409177
S1130370330250E02417350729F08FE191E00E9401
S11303803E0252C04AE0BE016F5F7F4F0E9474027A
S113039081E491E00E943E02CE0101960E943E0259
S11303A08BE491E00E943E02809132024AE0BE0159
S11303B06F5F7F4F90E00E947402CE0101960E940D
S11303C03E028DE491E00E943E0280E591E00E94AD
S11303D03E02809134024AE0BE016F5F7F4F90E09D
S11303E00E947402CE0101960E943E028BE491E0C9
S11303F00E943E02809136024AE0BE016F5F7F4F49
S113040090E00E947402CE0101960E943E028DE4A7
S113041091E00E943E02809133024AE0BE016F5F88
S11304207F4F90E00E9474020F900F900F900F90F6
S11304300F90DF91CF9108951092C10096E09093B0
S1130440C2008093C4000895E1ECF0E080818860EC
S113045080830895E1ECF0E08081806180830895D9
S1130460E1ECF0E080818068808308958091C00091
S113047085FFFCCF08958093C6000895EF92FF9204
S11304800F931F93CF937C01C0E007C00E943602F4
S1130490F80180810E943B02CF5F87010C0F111D80
S11304A0F80180818111F2CFCF911F910F91FF90BC
S11304B0EF9008958EE591E00E943E0286E691E079
S11304C00E943E0280E991E00E943E0288EB91E0A6
S11304D00E943E020895FB01DC018D910190801978
S11304E00110D9F3990B0895BB274A3031F49923AD
S11304F022F4BDE2909581959F4F0C948002BB2716
S1130500FB015527AA27880F991FAA1FA41710F0CB
S1130510A41B83955051B9F7A05DAA3308F0A95DD7
S1130520A193009779F7B111B1931192CB010C9477
S11305309902DC01FC01672F71917723E1F732976F
S113054004C07C916D9370836291AE17BF07C8F3AA
S10905500895F894FFCFAA
S11305564F4E004F46460052535400436F6D616E32
S1130566646F206E6F2076616C69646F0A0D0045B6
S113057652524F5220454E20454C2053454E534F20
S1130586522044452048554D4544414421212121CA
S11305960048756D656461643A20002E000D0A00FA
S11305A654656D70657261747572613A20004D65AB
S11305B66E75200A0D00312E20274F4E273C456EBE
S11305C67465723E20202D20656E63656E646572C7
S11305D6207265676973747261646F72200A0D0014
S11305E6322E20274F4646273C456E7465723E20C0
S11305F62D20617061676172207265676973747218
S113060661646F72200A0D00332E2027525354273B
S11306163C456E7465723E202D20566F6C7665726D
S113062620616C2065737461646F20696E69636907
S1090636616C200A0D00B6
S9030000FC
